{
	"contracts/ProfileCreator.sol": {
		"ProfileCreator": {
			"abi": [
				{
					"anonymous": false,
					"inputs": [
						{
							"indexed": true,
							"internalType": "address",
							"name": "user",
							"type": "address"
						},
						{
							"indexed": false,
							"internalType": "string",
							"name": "username",
							"type": "string"
						},
						{
							"indexed": false,
							"internalType": "string",
							"name": "email",
							"type": "string"
						}
					],
					"name": "ProfileCreated",
					"type": "event"
				},
				{
					"inputs": [
						{
							"internalType": "string",
							"name": "_username",
							"type": "string"
						},
						{
							"internalType": "string",
							"name": "_email",
							"type": "string"
						}
					],
					"name": "createProfile",
					"outputs": [],
					"stateMutability": "nonpayable",
					"type": "function"
				},
				{
					"inputs": [
						{
							"internalType": "address",
							"name": "_user",
							"type": "address"
						}
					],
					"name": "getProfile",
					"outputs": [
						{
							"components": [
								{
									"internalType": "string",
									"name": "username",
									"type": "string"
								},
								{
									"internalType": "string",
									"name": "email",
									"type": "string"
								}
							],
							"internalType": "struct ProfileCreator.Profile",
							"name": "",
							"type": "tuple"
						}
					],
					"stateMutability": "view",
					"type": "function"
				},
				{
					"inputs": [
						{
							"internalType": "address",
							"name": "",
							"type": "address"
						}
					],
					"name": "profiles",
					"outputs": [
						{
							"internalType": "string",
							"name": "username",
							"type": "string"
						},
						{
							"internalType": "string",
							"name": "email",
							"type": "string"
						}
					],
					"stateMutability": "view",
					"type": "function"
				}
			],
			"devdoc": {
				"kind": "dev",
				"methods": {},
				"version": 1
			},
			"evm": {
				"assembly": "    /* \"contracts/ProfileCreator.sol\":57:918  contract ProfileCreator {... */\n  mstore(0x40, 0x80)\n  callvalue\n  dup1\n  iszero\n  tag_1\n  jumpi\n  0x00\n  dup1\n  revert\ntag_1:\n  pop\n  dataSize(sub_0)\n  dup1\n  dataOffset(sub_0)\n  0x00\n  codecopy\n  0x00\n  return\nstop\n\nsub_0: assembly {\n        /* \"contracts/ProfileCreator.sol\":57:918  contract ProfileCreator {... */\n      mstore(0x40, 0x80)\n      callvalue\n      dup1\n      iszero\n      tag_1\n      jumpi\n      0x00\n      dup1\n      revert\n    tag_1:\n      pop\n      jumpi(tag_2, lt(calldatasize, 0x04))\n      shr(0xe0, calldataload(0x00))\n      dup1\n      0x0f53a470\n      eq\n      tag_3\n      jumpi\n      dup1\n      0xba1feb8a\n      eq\n      tag_4\n      jumpi\n      dup1\n      0xbbe15627\n      eq\n      tag_5\n      jumpi\n    tag_2:\n      0x00\n      dup1\n      revert\n        /* \"contracts/ProfileCreator.sol\":805:916  function getProfile(address _user) public view returns (Profile memory) {... */\n    tag_3:\n      tag_6\n      0x04\n      dup1\n      calldatasize\n      sub\n      dup2\n      add\n      swap1\n      tag_7\n      swap2\n      swap1\n      tag_8\n      jump\t// in\n    tag_7:\n      tag_9\n      jump\t// in\n    tag_6:\n      mload(0x40)\n      tag_10\n      swap2\n      swap1\n      tag_11\n      jump\t// in\n    tag_10:\n      mload(0x40)\n      dup1\n      swap2\n      sub\n      swap1\n      return\n        /* \"contracts/ProfileCreator.sol\":473:758  function createProfile(string memory _username, string memory _email) public {... */\n    tag_4:\n      tag_12\n      0x04\n      dup1\n      calldatasize\n      sub\n      dup2\n      add\n      swap1\n      tag_13\n      swap2\n      swap1\n      tag_14\n      jump\t// in\n    tag_13:\n      tag_15\n      jump\t// in\n    tag_12:\n      stop\n        /* \"contracts/ProfileCreator.sol\":243:286  mapping(address => Profile) public profiles */\n    tag_5:\n      tag_16\n      0x04\n      dup1\n      calldatasize\n      sub\n      dup2\n      add\n      swap1\n      tag_17\n      swap2\n      swap1\n      tag_8\n      jump\t// in\n    tag_17:\n      tag_18\n      jump\t// in\n    tag_16:\n      mload(0x40)\n      tag_19\n      swap3\n      swap2\n      swap1\n      tag_20\n      jump\t// in\n    tag_19:\n      mload(0x40)\n      dup1\n      swap2\n      sub\n      swap1\n      return\n        /* \"contracts/ProfileCreator.sol\":805:916  function getProfile(address _user) public view returns (Profile memory) {... */\n    tag_9:\n        /* \"contracts/ProfileCreator.sol\":861:875  Profile memory */\n      tag_21\n      tag_22\n      jump\t// in\n    tag_21:\n        /* \"contracts/ProfileCreator.sol\":894:902  profiles */\n      0x00\n        /* \"contracts/ProfileCreator.sol\":894:909  profiles[_user] */\n      dup1\n        /* \"contracts/ProfileCreator.sol\":903:908  _user */\n      dup4\n        /* \"contracts/ProfileCreator.sol\":894:909  profiles[_user] */\n      0xffffffffffffffffffffffffffffffffffffffff\n      and\n      0xffffffffffffffffffffffffffffffffffffffff\n      and\n      dup2\n      mstore\n      0x20\n      add\n      swap1\n      dup2\n      mstore\n      0x20\n      add\n      0x00\n      keccak256\n        /* \"contracts/ProfileCreator.sol\":887:909  return profiles[_user] */\n      mload(0x40)\n      dup1\n      0x40\n      add\n      0x40\n      mstore\n      swap1\n      dup2\n      0x00\n      dup3\n      add\n      dup1\n      sload\n      tag_24\n      swap1\n      tag_25\n      jump\t// in\n    tag_24:\n      dup1\n      0x1f\n      add\n      0x20\n      dup1\n      swap2\n      div\n      mul\n      0x20\n      add\n      mload(0x40)\n      swap1\n      dup2\n      add\n      0x40\n      mstore\n      dup1\n      swap3\n      swap2\n      swap1\n      dup2\n      dup2\n      mstore\n      0x20\n      add\n      dup3\n      dup1\n      sload\n      tag_26\n      swap1\n      tag_25\n      jump\t// in\n    tag_26:\n      dup1\n      iszero\n      tag_27\n      jumpi\n      dup1\n      0x1f\n      lt\n      tag_28\n      jumpi\n      0x0100\n      dup1\n      dup4\n      sload\n      div\n      mul\n      dup4\n      mstore\n      swap2\n      0x20\n      add\n      swap2\n      jump(tag_27)\n    tag_28:\n      dup3\n      add\n      swap2\n      swap1\n      0x00\n      mstore\n      keccak256(0x00, 0x20)\n      swap1\n    tag_29:\n      dup2\n      sload\n      dup2\n      mstore\n      swap1\n      0x01\n      add\n      swap1\n      0x20\n      add\n      dup1\n      dup4\n      gt\n      tag_29\n      jumpi\n      dup3\n      swap1\n      sub\n      0x1f\n      and\n      dup3\n      add\n      swap2\n    tag_27:\n      pop\n      pop\n      pop\n      pop\n      pop\n      dup2\n      mstore\n      0x20\n      add\n      0x01\n      dup3\n      add\n      dup1\n      sload\n      tag_30\n      swap1\n      tag_25\n      jump\t// in\n    tag_30:\n      dup1\n      0x1f\n      add\n      0x20\n      dup1\n      swap2\n      div\n      mul\n      0x20\n      add\n      mload(0x40)\n      swap1\n      dup2\n      add\n      0x40\n      mstore\n      dup1\n      swap3\n      swap2\n      swap1\n      dup2\n      dup2\n      mstore\n      0x20\n      add\n      dup3\n      dup1\n      sload\n      tag_31\n      swap1\n      tag_25\n      jump\t// in\n    tag_31:\n      dup1\n      iszero\n      tag_32\n      jumpi\n      dup1\n      0x1f\n      lt\n      tag_33\n      jumpi\n      0x0100\n      dup1\n      dup4\n      sload\n      div\n      mul\n      dup4\n      mstore\n      swap2\n      0x20\n      add\n      swap2\n      jump(tag_32)\n    tag_33:\n      dup3\n      add\n      swap2\n      swap1\n      0x00\n      mstore\n      keccak256(0x00, 0x20)\n      swap1\n    tag_34:\n      dup2\n      sload\n      dup2\n      mstore\n      swap1\n      0x01\n      add\n      swap1\n      0x20\n      add\n      dup1\n      dup4\n      gt\n      tag_34\n      jumpi\n      dup3\n      swap1\n      sub\n      0x1f\n      and\n      dup3\n      add\n      swap2\n    tag_32:\n      pop\n      pop\n      pop\n      pop\n      pop\n      dup2\n      mstore\n      pop\n      pop\n      swap1\n      pop\n        /* \"contracts/ProfileCreator.sol\":805:916  function getProfile(address _user) public view returns (Profile memory) {... */\n      swap2\n      swap1\n      pop\n      jump\t// out\n        /* \"contracts/ProfileCreator.sol\":473:758  function createProfile(string memory _username, string memory _email) public {... */\n    tag_15:\n        /* \"contracts/ProfileCreator.sol\":634:660  Profile(_username, _email) */\n      mload(0x40)\n      dup1\n      0x40\n      add\n      0x40\n      mstore\n      dup1\n        /* \"contracts/ProfileCreator.sol\":642:651  _username */\n      dup4\n        /* \"contracts/ProfileCreator.sol\":634:660  Profile(_username, _email) */\n      dup2\n      mstore\n      0x20\n      add\n        /* \"contracts/ProfileCreator.sol\":653:659  _email */\n      dup3\n        /* \"contracts/ProfileCreator.sol\":634:660  Profile(_username, _email) */\n      dup2\n      mstore\n      pop\n        /* \"contracts/ProfileCreator.sol\":611:619  profiles */\n      0x00\n        /* \"contracts/ProfileCreator.sol\":611:631  profiles[msg.sender] */\n      dup1\n        /* \"contracts/ProfileCreator.sol\":620:630  msg.sender */\n      caller\n        /* \"contracts/ProfileCreator.sol\":611:631  profiles[msg.sender] */\n      0xffffffffffffffffffffffffffffffffffffffff\n      and\n      0xffffffffffffffffffffffffffffffffffffffff\n      and\n      dup2\n      mstore\n      0x20\n      add\n      swap1\n      dup2\n      mstore\n      0x20\n      add\n      0x00\n      keccak256\n        /* \"contracts/ProfileCreator.sol\":611:660  profiles[msg.sender] = Profile(_username, _email) */\n      0x00\n      dup3\n      add\n      mload\n      dup2\n      0x00\n      add\n      swap1\n      dup2\n      tag_36\n      swap2\n      swap1\n      tag_37\n      jump\t// in\n    tag_36:\n      pop\n      0x20\n      dup3\n      add\n      mload\n      dup2\n      0x01\n      add\n      swap1\n      dup2\n      tag_38\n      swap2\n      swap1\n      tag_37\n      jump\t// in\n    tag_38:\n      pop\n      swap1\n      pop\n      pop\n        /* \"contracts/ProfileCreator.sol\":721:731  msg.sender */\n      caller\n        /* \"contracts/ProfileCreator.sol\":706:751  ProfileCreated(msg.sender, _username, _email) */\n      0xffffffffffffffffffffffffffffffffffffffff\n      and\n      0x6b4494367229a908b0585b361e2871a21f8eb4cd852c02f55c9e06989f4bb2aa\n        /* \"contracts/ProfileCreator.sol\":733:742  _username */\n      dup4\n        /* \"contracts/ProfileCreator.sol\":744:750  _email */\n      dup4\n        /* \"contracts/ProfileCreator.sol\":706:751  ProfileCreated(msg.sender, _username, _email) */\n      mload(0x40)\n      tag_39\n      swap3\n      swap2\n      swap1\n      tag_20\n      jump\t// in\n    tag_39:\n      mload(0x40)\n      dup1\n      swap2\n      sub\n      swap1\n      log2\n        /* \"contracts/ProfileCreator.sol\":473:758  function createProfile(string memory _username, string memory _email) public {... */\n      pop\n      pop\n      jump\t// out\n        /* \"contracts/ProfileCreator.sol\":243:286  mapping(address => Profile) public profiles */\n    tag_18:\n      mstore(0x20, 0x00)\n      dup1\n      0x00\n      mstore\n      keccak256(0x00, 0x40)\n      0x00\n      swap2\n      pop\n      swap1\n      pop\n      dup1\n      0x00\n      add\n      dup1\n      sload\n      tag_40\n      swap1\n      tag_25\n      jump\t// in\n    tag_40:\n      dup1\n      0x1f\n      add\n      0x20\n      dup1\n      swap2\n      div\n      mul\n      0x20\n      add\n      mload(0x40)\n      swap1\n      dup2\n      add\n      0x40\n      mstore\n      dup1\n      swap3\n      swap2\n      swap1\n      dup2\n      dup2\n      mstore\n      0x20\n      add\n      dup3\n      dup1\n      sload\n      tag_41\n      swap1\n      tag_25\n      jump\t// in\n    tag_41:\n      dup1\n      iszero\n      tag_42\n      jumpi\n      dup1\n      0x1f\n      lt\n      tag_43\n      jumpi\n      0x0100\n      dup1\n      dup4\n      sload\n      div\n      mul\n      dup4\n      mstore\n      swap2\n      0x20\n      add\n      swap2\n      jump(tag_42)\n    tag_43:\n      dup3\n      add\n      swap2\n      swap1\n      0x00\n      mstore\n      keccak256(0x00, 0x20)\n      swap1\n    tag_44:\n      dup2\n      sload\n      dup2\n      mstore\n      swap1\n      0x01\n      add\n      swap1\n      0x20\n      add\n      dup1\n      dup4\n      gt\n      tag_44\n      jumpi\n      dup3\n      swap1\n      sub\n      0x1f\n      and\n      dup3\n      add\n      swap2\n    tag_42:\n      pop\n      pop\n      pop\n      pop\n      pop\n      swap1\n      dup1\n      0x01\n      add\n      dup1\n      sload\n      tag_45\n      swap1\n      tag_25\n      jump\t// in\n    tag_45:\n      dup1\n      0x1f\n      add\n      0x20\n      dup1\n      swap2\n      div\n      mul\n      0x20\n      add\n      mload(0x40)\n      swap1\n      dup2\n      add\n      0x40\n      mstore\n      dup1\n      swap3\n      swap2\n      swap1\n      dup2\n      dup2\n      mstore\n      0x20\n      add\n      dup3\n      dup1\n      sload\n      tag_46\n      swap1\n      tag_25\n      jump\t// in\n    tag_46:\n      dup1\n      iszero\n      tag_47\n      jumpi\n      dup1\n      0x1f\n      lt\n      tag_48\n      jumpi\n      0x0100\n      dup1\n      dup4\n      sload\n      div\n      mul\n      dup4\n      mstore\n      swap2\n      0x20\n      add\n      swap2\n      jump(tag_47)\n    tag_48:\n      dup3\n      add\n      swap2\n      swap1\n      0x00\n      mstore\n      keccak256(0x00, 0x20)\n      swap1\n    tag_49:\n      dup2\n      sload\n      dup2\n      mstore\n      swap1\n      0x01\n      add\n      swap1\n      0x20\n      add\n      dup1\n      dup4\n      gt\n      tag_49\n      jumpi\n      dup3\n      swap1\n      sub\n      0x1f\n      and\n      dup3\n      add\n      swap2\n    tag_47:\n      pop\n      pop\n      pop\n      pop\n      pop\n      swap1\n      pop\n      dup3\n      jump\t// out\n    tag_22:\n      mload(0x40)\n      dup1\n      0x40\n      add\n      0x40\n      mstore\n      dup1\n      0x60\n      dup2\n      mstore\n      0x20\n      add\n      0x60\n      dup2\n      mstore\n      pop\n      swap1\n      jump\t// out\n        /* \"#utility.yul\":7:82   */\n    tag_50:\n        /* \"#utility.yul\":40:46   */\n      0x00\n        /* \"#utility.yul\":73:75   */\n      0x40\n        /* \"#utility.yul\":67:76   */\n      mload\n        /* \"#utility.yul\":57:76   */\n      swap1\n      pop\n        /* \"#utility.yul\":7:82   */\n      swap1\n      jump\t// out\n        /* \"#utility.yul\":88:205   */\n    tag_51:\n        /* \"#utility.yul\":197:198   */\n      0x00\n        /* \"#utility.yul\":194:195   */\n      dup1\n        /* \"#utility.yul\":187:199   */\n      revert\n        /* \"#utility.yul\":211:328   */\n    tag_52:\n        /* \"#utility.yul\":320:321   */\n      0x00\n        /* \"#utility.yul\":317:318   */\n      dup1\n        /* \"#utility.yul\":310:322   */\n      revert\n        /* \"#utility.yul\":334:460   */\n    tag_53:\n        /* \"#utility.yul\":371:378   */\n      0x00\n        /* \"#utility.yul\":411:453   */\n      0xffffffffffffffffffffffffffffffffffffffff\n        /* \"#utility.yul\":404:409   */\n      dup3\n        /* \"#utility.yul\":400:454   */\n      and\n        /* \"#utility.yul\":389:454   */\n      swap1\n      pop\n        /* \"#utility.yul\":334:460   */\n      swap2\n      swap1\n      pop\n      jump\t// out\n        /* \"#utility.yul\":466:562   */\n    tag_54:\n        /* \"#utility.yul\":503:510   */\n      0x00\n        /* \"#utility.yul\":532:556   */\n      tag_97\n        /* \"#utility.yul\":550:555   */\n      dup3\n        /* \"#utility.yul\":532:556   */\n      tag_53\n      jump\t// in\n    tag_97:\n        /* \"#utility.yul\":521:556   */\n      swap1\n      pop\n        /* \"#utility.yul\":466:562   */\n      swap2\n      swap1\n      pop\n      jump\t// out\n        /* \"#utility.yul\":568:690   */\n    tag_55:\n        /* \"#utility.yul\":641:665   */\n      tag_99\n        /* \"#utility.yul\":659:664   */\n      dup2\n        /* \"#utility.yul\":641:665   */\n      tag_54\n      jump\t// in\n    tag_99:\n        /* \"#utility.yul\":634:639   */\n      dup2\n        /* \"#utility.yul\":631:666   */\n      eq\n        /* \"#utility.yul\":621:684   */\n      tag_100\n      jumpi\n        /* \"#utility.yul\":680:681   */\n      0x00\n        /* \"#utility.yul\":677:678   */\n      dup1\n        /* \"#utility.yul\":670:682   */\n      revert\n        /* \"#utility.yul\":621:684   */\n    tag_100:\n        /* \"#utility.yul\":568:690   */\n      pop\n      jump\t// out\n        /* \"#utility.yul\":696:835   */\n    tag_56:\n        /* \"#utility.yul\":742:747   */\n      0x00\n        /* \"#utility.yul\":780:786   */\n      dup2\n        /* \"#utility.yul\":767:787   */\n      calldataload\n        /* \"#utility.yul\":758:787   */\n      swap1\n      pop\n        /* \"#utility.yul\":796:829   */\n      tag_102\n        /* \"#utility.yul\":823:828   */\n      dup2\n        /* \"#utility.yul\":796:829   */\n      tag_55\n      jump\t// in\n    tag_102:\n        /* \"#utility.yul\":696:835   */\n      swap3\n      swap2\n      pop\n      pop\n      jump\t// out\n        /* \"#utility.yul\":841:1170   */\n    tag_8:\n        /* \"#utility.yul\":900:906   */\n      0x00\n        /* \"#utility.yul\":949:951   */\n      0x20\n        /* \"#utility.yul\":937:946   */\n      dup3\n        /* \"#utility.yul\":928:935   */\n      dup5\n        /* \"#utility.yul\":924:947   */\n      sub\n        /* \"#utility.yul\":920:952   */\n      slt\n        /* \"#utility.yul\":917:1036   */\n      iszero\n      tag_104\n      jumpi\n        /* \"#utility.yul\":955:1034   */\n      tag_105\n      tag_51\n      jump\t// in\n    tag_105:\n        /* \"#utility.yul\":917:1036   */\n    tag_104:\n        /* \"#utility.yul\":1075:1076   */\n      0x00\n        /* \"#utility.yul\":1100:1153   */\n      tag_106\n        /* \"#utility.yul\":1145:1152   */\n      dup5\n        /* \"#utility.yul\":1136:1142   */\n      dup3\n        /* \"#utility.yul\":1125:1134   */\n      dup6\n        /* \"#utility.yul\":1121:1143   */\n      add\n        /* \"#utility.yul\":1100:1153   */\n      tag_56\n      jump\t// in\n    tag_106:\n        /* \"#utility.yul\":1090:1153   */\n      swap2\n      pop\n        /* \"#utility.yul\":1046:1163   */\n      pop\n        /* \"#utility.yul\":841:1170   */\n      swap3\n      swap2\n      pop\n      pop\n      jump\t// out\n        /* \"#utility.yul\":1176:1275   */\n    tag_57:\n        /* \"#utility.yul\":1228:1234   */\n      0x00\n        /* \"#utility.yul\":1262:1267   */\n      dup2\n        /* \"#utility.yul\":1256:1268   */\n      mload\n        /* \"#utility.yul\":1246:1268   */\n      swap1\n      pop\n        /* \"#utility.yul\":1176:1275   */\n      swap2\n      swap1\n      pop\n      jump\t// out\n        /* \"#utility.yul\":1281:1440   */\n    tag_58:\n        /* \"#utility.yul\":1355:1366   */\n      0x00\n        /* \"#utility.yul\":1389:1395   */\n      dup3\n        /* \"#utility.yul\":1384:1387   */\n      dup3\n        /* \"#utility.yul\":1377:1396   */\n      mstore\n        /* \"#utility.yul\":1429:1433   */\n      0x20\n        /* \"#utility.yul\":1424:1427   */\n      dup3\n        /* \"#utility.yul\":1420:1434   */\n      add\n        /* \"#utility.yul\":1405:1434   */\n      swap1\n      pop\n        /* \"#utility.yul\":1281:1440   */\n      swap3\n      swap2\n      pop\n      pop\n      jump\t// out\n        /* \"#utility.yul\":1446:1694   */\n    tag_59:\n        /* \"#utility.yul\":1528:1529   */\n      0x00\n        /* \"#utility.yul\":1538:1651   */\n    tag_110:\n        /* \"#utility.yul\":1552:1558   */\n      dup4\n        /* \"#utility.yul\":1549:1550   */\n      dup2\n        /* \"#utility.yul\":1546:1559   */\n      lt\n        /* \"#utility.yul\":1538:1651   */\n      iszero\n      tag_112\n      jumpi\n        /* \"#utility.yul\":1637:1638   */\n      dup1\n        /* \"#utility.yul\":1632:1635   */\n      dup3\n        /* \"#utility.yul\":1628:1639   */\n      add\n        /* \"#utility.yul\":1622:1640   */\n      mload\n        /* \"#utility.yul\":1618:1619   */\n      dup2\n        /* \"#utility.yul\":1613:1616   */\n      dup5\n        /* \"#utility.yul\":1609:1620   */\n      add\n        /* \"#utility.yul\":1602:1641   */\n      mstore\n        /* \"#utility.yul\":1574:1576   */\n      0x20\n        /* \"#utility.yul\":1571:1572   */\n      dup2\n        /* \"#utility.yul\":1567:1577   */\n      add\n        /* \"#utility.yul\":1562:1577   */\n      swap1\n      pop\n        /* \"#utility.yul\":1538:1651   */\n      jump(tag_110)\n    tag_112:\n        /* \"#utility.yul\":1685:1686   */\n      0x00\n        /* \"#utility.yul\":1676:1682   */\n      dup5\n        /* \"#utility.yul\":1671:1674   */\n      dup5\n        /* \"#utility.yul\":1667:1683   */\n      add\n        /* \"#utility.yul\":1660:1687   */\n      mstore\n        /* \"#utility.yul\":1508:1694   */\n      pop\n        /* \"#utility.yul\":1446:1694   */\n      pop\n      pop\n      pop\n      jump\t// out\n        /* \"#utility.yul\":1700:1802   */\n    tag_60:\n        /* \"#utility.yul\":1741:1747   */\n      0x00\n        /* \"#utility.yul\":1792:1794   */\n      0x1f\n        /* \"#utility.yul\":1788:1795   */\n      not\n        /* \"#utility.yul\":1783:1785   */\n      0x1f\n        /* \"#utility.yul\":1776:1781   */\n      dup4\n        /* \"#utility.yul\":1772:1786   */\n      add\n        /* \"#utility.yul\":1768:1796   */\n      and\n        /* \"#utility.yul\":1758:1796   */\n      swap1\n      pop\n        /* \"#utility.yul\":1700:1802   */\n      swap2\n      swap1\n      pop\n      jump\t// out\n        /* \"#utility.yul\":1808:2165   */\n    tag_61:\n        /* \"#utility.yul\":1886:1889   */\n      0x00\n        /* \"#utility.yul\":1914:1953   */\n      tag_115\n        /* \"#utility.yul\":1947:1952   */\n      dup3\n        /* \"#utility.yul\":1914:1953   */\n      tag_57\n      jump\t// in\n    tag_115:\n        /* \"#utility.yul\":1969:2030   */\n      tag_116\n        /* \"#utility.yul\":2023:2029   */\n      dup2\n        /* \"#utility.yul\":2018:2021   */\n      dup6\n        /* \"#utility.yul\":1969:2030   */\n      tag_58\n      jump\t// in\n    tag_116:\n        /* \"#utility.yul\":1962:2030   */\n      swap4\n      pop\n        /* \"#utility.yul\":2039:2104   */\n      tag_117\n        /* \"#utility.yul\":2097:2103   */\n      dup2\n        /* \"#utility.yul\":2092:2095   */\n      dup6\n        /* \"#utility.yul\":2085:2089   */\n      0x20\n        /* \"#utility.yul\":2078:2083   */\n      dup7\n        /* \"#utility.yul\":2074:2090   */\n      add\n        /* \"#utility.yul\":2039:2104   */\n      tag_59\n      jump\t// in\n    tag_117:\n        /* \"#utility.yul\":2129:2158   */\n      tag_118\n        /* \"#utility.yul\":2151:2157   */\n      dup2\n        /* \"#utility.yul\":2129:2158   */\n      tag_60\n      jump\t// in\n    tag_118:\n        /* \"#utility.yul\":2124:2127   */\n      dup5\n        /* \"#utility.yul\":2120:2159   */\n      add\n        /* \"#utility.yul\":2113:2159   */\n      swap2\n      pop\n        /* \"#utility.yul\":1890:2165   */\n      pop\n        /* \"#utility.yul\":1808:2165   */\n      swap3\n      swap2\n      pop\n      pop\n      jump\t// out\n        /* \"#utility.yul\":2241:2917   */\n    tag_62:\n        /* \"#utility.yul\":2354:2357   */\n      0x00\n        /* \"#utility.yul\":2390:2394   */\n      0x40\n        /* \"#utility.yul\":2385:2388   */\n      dup4\n        /* \"#utility.yul\":2381:2395   */\n      add\n        /* \"#utility.yul\":2481:2485   */\n      0x00\n        /* \"#utility.yul\":2474:2479   */\n      dup4\n        /* \"#utility.yul\":2470:2486   */\n      add\n        /* \"#utility.yul\":2464:2487   */\n      mload\n        /* \"#utility.yul\":2534:2537   */\n      dup5\n        /* \"#utility.yul\":2528:2532   */\n      dup3\n        /* \"#utility.yul\":2524:2538   */\n      sub\n        /* \"#utility.yul\":2517:2521   */\n      0x00\n        /* \"#utility.yul\":2512:2515   */\n      dup7\n        /* \"#utility.yul\":2508:2522   */\n      add\n        /* \"#utility.yul\":2501:2539   */\n      mstore\n        /* \"#utility.yul\":2560:2633   */\n      tag_120\n        /* \"#utility.yul\":2628:2632   */\n      dup3\n        /* \"#utility.yul\":2614:2626   */\n      dup3\n        /* \"#utility.yul\":2560:2633   */\n      tag_61\n      jump\t// in\n    tag_120:\n        /* \"#utility.yul\":2552:2633   */\n      swap2\n      pop\n        /* \"#utility.yul\":2405:2644   */\n      pop\n        /* \"#utility.yul\":2727:2731   */\n      0x20\n        /* \"#utility.yul\":2720:2725   */\n      dup4\n        /* \"#utility.yul\":2716:2732   */\n      add\n        /* \"#utility.yul\":2710:2733   */\n      mload\n        /* \"#utility.yul\":2780:2783   */\n      dup5\n        /* \"#utility.yul\":2774:2778   */\n      dup3\n        /* \"#utility.yul\":2770:2784   */\n      sub\n        /* \"#utility.yul\":2763:2767   */\n      0x20\n        /* \"#utility.yul\":2758:2761   */\n      dup7\n        /* \"#utility.yul\":2754:2768   */\n      add\n        /* \"#utility.yul\":2747:2785   */\n      mstore\n        /* \"#utility.yul\":2806:2879   */\n      tag_121\n        /* \"#utility.yul\":2874:2878   */\n      dup3\n        /* \"#utility.yul\":2860:2872   */\n      dup3\n        /* \"#utility.yul\":2806:2879   */\n      tag_61\n      jump\t// in\n    tag_121:\n        /* \"#utility.yul\":2798:2879   */\n      swap2\n      pop\n        /* \"#utility.yul\":2654:2890   */\n      pop\n        /* \"#utility.yul\":2907:2911   */\n      dup1\n        /* \"#utility.yul\":2900:2911   */\n      swap2\n      pop\n        /* \"#utility.yul\":2359:2917   */\n      pop\n        /* \"#utility.yul\":2241:2917   */\n      swap3\n      swap2\n      pop\n      pop\n      jump\t// out\n        /* \"#utility.yul\":2923:3284   */\n    tag_11:\n        /* \"#utility.yul\":3060:3064   */\n      0x00\n        /* \"#utility.yul\":3098:3100   */\n      0x20\n        /* \"#utility.yul\":3087:3096   */\n      dup3\n        /* \"#utility.yul\":3083:3101   */\n      add\n        /* \"#utility.yul\":3075:3101   */\n      swap1\n      pop\n        /* \"#utility.yul\":3147:3156   */\n      dup2\n        /* \"#utility.yul\":3141:3145   */\n      dup2\n        /* \"#utility.yul\":3137:3157   */\n      sub\n        /* \"#utility.yul\":3133:3134   */\n      0x00\n        /* \"#utility.yul\":3122:3131   */\n      dup4\n        /* \"#utility.yul\":3118:3135   */\n      add\n        /* \"#utility.yul\":3111:3158   */\n      mstore\n        /* \"#utility.yul\":3175:3277   */\n      tag_123\n        /* \"#utility.yul\":3272:3276   */\n      dup2\n        /* \"#utility.yul\":3263:3269   */\n      dup5\n        /* \"#utility.yul\":3175:3277   */\n      tag_62\n      jump\t// in\n    tag_123:\n        /* \"#utility.yul\":3167:3277   */\n      swap1\n      pop\n        /* \"#utility.yul\":2923:3284   */\n      swap3\n      swap2\n      pop\n      pop\n      jump\t// out\n        /* \"#utility.yul\":3290:3407   */\n    tag_63:\n        /* \"#utility.yul\":3399:3400   */\n      0x00\n        /* \"#utility.yul\":3396:3397   */\n      dup1\n        /* \"#utility.yul\":3389:3401   */\n      revert\n        /* \"#utility.yul\":3413:3530   */\n    tag_64:\n        /* \"#utility.yul\":3522:3523   */\n      0x00\n        /* \"#utility.yul\":3519:3520   */\n      dup1\n        /* \"#utility.yul\":3512:3524   */\n      revert\n        /* \"#utility.yul\":3536:3716   */\n    tag_65:\n        /* \"#utility.yul\":3584:3661   */\n      0x4e487b7100000000000000000000000000000000000000000000000000000000\n        /* \"#utility.yul\":3581:3582   */\n      0x00\n        /* \"#utility.yul\":3574:3662   */\n      mstore\n        /* \"#utility.yul\":3681:3685   */\n      0x41\n        /* \"#utility.yul\":3678:3679   */\n      0x04\n        /* \"#utility.yul\":3671:3686   */\n      mstore\n        /* \"#utility.yul\":3705:3709   */\n      0x24\n        /* \"#utility.yul\":3702:3703   */\n      0x00\n        /* \"#utility.yul\":3695:3710   */\n      revert\n        /* \"#utility.yul\":3722:4003   */\n    tag_66:\n        /* \"#utility.yul\":3805:3832   */\n      tag_128\n        /* \"#utility.yul\":3827:3831   */\n      dup3\n        /* \"#utility.yul\":3805:3832   */\n      tag_60\n      jump\t// in\n    tag_128:\n        /* \"#utility.yul\":3797:3803   */\n      dup2\n        /* \"#utility.yul\":3793:3833   */\n      add\n        /* \"#utility.yul\":3935:3941   */\n      dup2\n        /* \"#utility.yul\":3923:3933   */\n      dup2\n        /* \"#utility.yul\":3920:3942   */\n      lt\n        /* \"#utility.yul\":3899:3917   */\n      0xffffffffffffffff\n        /* \"#utility.yul\":3887:3897   */\n      dup3\n        /* \"#utility.yul\":3884:3918   */\n      gt\n        /* \"#utility.yul\":3881:3943   */\n      or\n        /* \"#utility.yul\":3878:3966   */\n      iszero\n      tag_129\n      jumpi\n        /* \"#utility.yul\":3946:3964   */\n      tag_130\n      tag_65\n      jump\t// in\n    tag_130:\n        /* \"#utility.yul\":3878:3966   */\n    tag_129:\n        /* \"#utility.yul\":3986:3996   */\n      dup1\n        /* \"#utility.yul\":3982:3984   */\n      0x40\n        /* \"#utility.yul\":3975:3997   */\n      mstore\n        /* \"#utility.yul\":3765:4003   */\n      pop\n        /* \"#utility.yul\":3722:4003   */\n      pop\n      pop\n      jump\t// out\n        /* \"#utility.yul\":4009:4138   */\n    tag_67:\n        /* \"#utility.yul\":4043:4049   */\n      0x00\n        /* \"#utility.yul\":4070:4090   */\n      tag_132\n      tag_50\n      jump\t// in\n    tag_132:\n        /* \"#utility.yul\":4060:4090   */\n      swap1\n      pop\n        /* \"#utility.yul\":4099:4132   */\n      tag_133\n        /* \"#utility.yul\":4127:4131   */\n      dup3\n        /* \"#utility.yul\":4119:4125   */\n      dup3\n        /* \"#utility.yul\":4099:4132   */\n      tag_66\n      jump\t// in\n    tag_133:\n        /* \"#utility.yul\":4009:4138   */\n      swap2\n      swap1\n      pop\n      jump\t// out\n        /* \"#utility.yul\":4144:4452   */\n    tag_68:\n        /* \"#utility.yul\":4206:4210   */\n      0x00\n        /* \"#utility.yul\":4296:4314   */\n      0xffffffffffffffff\n        /* \"#utility.yul\":4288:4294   */\n      dup3\n        /* \"#utility.yul\":4285:4315   */\n      gt\n        /* \"#utility.yul\":4282:4338   */\n      iszero\n      tag_135\n      jumpi\n        /* \"#utility.yul\":4318:4336   */\n      tag_136\n      tag_65\n      jump\t// in\n    tag_136:\n        /* \"#utility.yul\":4282:4338   */\n    tag_135:\n        /* \"#utility.yul\":4356:4385   */\n      tag_137\n        /* \"#utility.yul\":4378:4384   */\n      dup3\n        /* \"#utility.yul\":4356:4385   */\n      tag_60\n      jump\t// in\n    tag_137:\n        /* \"#utility.yul\":4348:4385   */\n      swap1\n      pop\n        /* \"#utility.yul\":4440:4444   */\n      0x20\n        /* \"#utility.yul\":4434:4438   */\n      dup2\n        /* \"#utility.yul\":4430:4445   */\n      add\n        /* \"#utility.yul\":4422:4445   */\n      swap1\n      pop\n        /* \"#utility.yul\":4144:4452   */\n      swap2\n      swap1\n      pop\n      jump\t// out\n        /* \"#utility.yul\":4458:4606   */\n    tag_69:\n        /* \"#utility.yul\":4556:4562   */\n      dup3\n        /* \"#utility.yul\":4551:4554   */\n      dup2\n        /* \"#utility.yul\":4546:4549   */\n      dup4\n        /* \"#utility.yul\":4533:4563   */\n      calldatacopy\n        /* \"#utility.yul\":4597:4598   */\n      0x00\n        /* \"#utility.yul\":4588:4594   */\n      dup4\n        /* \"#utility.yul\":4583:4586   */\n      dup4\n        /* \"#utility.yul\":4579:4595   */\n      add\n        /* \"#utility.yul\":4572:4599   */\n      mstore\n        /* \"#utility.yul\":4458:4606   */\n      pop\n      pop\n      pop\n      jump\t// out\n        /* \"#utility.yul\":4612:5037   */\n    tag_70:\n        /* \"#utility.yul\":4690:4695   */\n      0x00\n        /* \"#utility.yul\":4715:4781   */\n      tag_140\n        /* \"#utility.yul\":4731:4780   */\n      tag_141\n        /* \"#utility.yul\":4773:4779   */\n      dup5\n        /* \"#utility.yul\":4731:4780   */\n      tag_68\n      jump\t// in\n    tag_141:\n        /* \"#utility.yul\":4715:4781   */\n      tag_67\n      jump\t// in\n    tag_140:\n        /* \"#utility.yul\":4706:4781   */\n      swap1\n      pop\n        /* \"#utility.yul\":4804:4810   */\n      dup3\n        /* \"#utility.yul\":4797:4802   */\n      dup2\n        /* \"#utility.yul\":4790:4811   */\n      mstore\n        /* \"#utility.yul\":4842:4846   */\n      0x20\n        /* \"#utility.yul\":4835:4840   */\n      dup2\n        /* \"#utility.yul\":4831:4847   */\n      add\n        /* \"#utility.yul\":4880:4883   */\n      dup5\n        /* \"#utility.yul\":4871:4877   */\n      dup5\n        /* \"#utility.yul\":4866:4869   */\n      dup5\n        /* \"#utility.yul\":4862:4878   */\n      add\n        /* \"#utility.yul\":4859:4884   */\n      gt\n        /* \"#utility.yul\":4856:4968   */\n      iszero\n      tag_142\n      jumpi\n        /* \"#utility.yul\":4887:4966   */\n      tag_143\n      tag_64\n      jump\t// in\n    tag_143:\n        /* \"#utility.yul\":4856:4968   */\n    tag_142:\n        /* \"#utility.yul\":4977:5031   */\n      tag_144\n        /* \"#utility.yul\":5024:5030   */\n      dup5\n        /* \"#utility.yul\":5019:5022   */\n      dup3\n        /* \"#utility.yul\":5014:5017   */\n      dup6\n        /* \"#utility.yul\":4977:5031   */\n      tag_69\n      jump\t// in\n    tag_144:\n        /* \"#utility.yul\":4696:5037   */\n      pop\n        /* \"#utility.yul\":4612:5037   */\n      swap4\n      swap3\n      pop\n      pop\n      pop\n      jump\t// out\n        /* \"#utility.yul\":5057:5397   */\n    tag_71:\n        /* \"#utility.yul\":5113:5118   */\n      0x00\n        /* \"#utility.yul\":5162:5165   */\n      dup3\n        /* \"#utility.yul\":5155:5159   */\n      0x1f\n        /* \"#utility.yul\":5147:5153   */\n      dup4\n        /* \"#utility.yul\":5143:5160   */\n      add\n        /* \"#utility.yul\":5139:5166   */\n      slt\n        /* \"#utility.yul\":5129:5251   */\n      tag_146\n      jumpi\n        /* \"#utility.yul\":5170:5249   */\n      tag_147\n      tag_63\n      jump\t// in\n    tag_147:\n        /* \"#utility.yul\":5129:5251   */\n    tag_146:\n        /* \"#utility.yul\":5287:5293   */\n      dup2\n        /* \"#utility.yul\":5274:5294   */\n      calldataload\n        /* \"#utility.yul\":5312:5391   */\n      tag_148\n        /* \"#utility.yul\":5387:5390   */\n      dup5\n        /* \"#utility.yul\":5379:5385   */\n      dup3\n        /* \"#utility.yul\":5372:5376   */\n      0x20\n        /* \"#utility.yul\":5364:5370   */\n      dup7\n        /* \"#utility.yul\":5360:5377   */\n      add\n        /* \"#utility.yul\":5312:5391   */\n      tag_70\n      jump\t// in\n    tag_148:\n        /* \"#utility.yul\":5303:5391   */\n      swap2\n      pop\n        /* \"#utility.yul\":5119:5397   */\n      pop\n        /* \"#utility.yul\":5057:5397   */\n      swap3\n      swap2\n      pop\n      pop\n      jump\t// out\n        /* \"#utility.yul\":5403:6237   */\n    tag_14:\n        /* \"#utility.yul\":5491:5497   */\n      0x00\n        /* \"#utility.yul\":5499:5505   */\n      dup1\n        /* \"#utility.yul\":5548:5550   */\n      0x40\n        /* \"#utility.yul\":5536:5545   */\n      dup4\n        /* \"#utility.yul\":5527:5534   */\n      dup6\n        /* \"#utility.yul\":5523:5546   */\n      sub\n        /* \"#utility.yul\":5519:5551   */\n      slt\n        /* \"#utility.yul\":5516:5635   */\n      iszero\n      tag_150\n      jumpi\n        /* \"#utility.yul\":5554:5633   */\n      tag_151\n      tag_51\n      jump\t// in\n    tag_151:\n        /* \"#utility.yul\":5516:5635   */\n    tag_150:\n        /* \"#utility.yul\":5702:5703   */\n      0x00\n        /* \"#utility.yul\":5691:5700   */\n      dup4\n        /* \"#utility.yul\":5687:5704   */\n      add\n        /* \"#utility.yul\":5674:5705   */\n      calldataload\n        /* \"#utility.yul\":5732:5750   */\n      0xffffffffffffffff\n        /* \"#utility.yul\":5724:5730   */\n      dup2\n        /* \"#utility.yul\":5721:5751   */\n      gt\n        /* \"#utility.yul\":5718:5835   */\n      iszero\n      tag_152\n      jumpi\n        /* \"#utility.yul\":5754:5833   */\n      tag_153\n      tag_52\n      jump\t// in\n    tag_153:\n        /* \"#utility.yul\":5718:5835   */\n    tag_152:\n        /* \"#utility.yul\":5859:5922   */\n      tag_154\n        /* \"#utility.yul\":5914:5921   */\n      dup6\n        /* \"#utility.yul\":5905:5911   */\n      dup3\n        /* \"#utility.yul\":5894:5903   */\n      dup7\n        /* \"#utility.yul\":5890:5912   */\n      add\n        /* \"#utility.yul\":5859:5922   */\n      tag_71\n      jump\t// in\n    tag_154:\n        /* \"#utility.yul\":5849:5922   */\n      swap3\n      pop\n        /* \"#utility.yul\":5645:5932   */\n      pop\n        /* \"#utility.yul\":5999:6001   */\n      0x20\n        /* \"#utility.yul\":5988:5997   */\n      dup4\n        /* \"#utility.yul\":5984:6002   */\n      add\n        /* \"#utility.yul\":5971:6003   */\n      calldataload\n        /* \"#utility.yul\":6030:6048   */\n      0xffffffffffffffff\n        /* \"#utility.yul\":6022:6028   */\n      dup2\n        /* \"#utility.yul\":6019:6049   */\n      gt\n        /* \"#utility.yul\":6016:6133   */\n      iszero\n      tag_155\n      jumpi\n        /* \"#utility.yul\":6052:6131   */\n      tag_156\n      tag_52\n      jump\t// in\n    tag_156:\n        /* \"#utility.yul\":6016:6133   */\n    tag_155:\n        /* \"#utility.yul\":6157:6220   */\n      tag_157\n        /* \"#utility.yul\":6212:6219   */\n      dup6\n        /* \"#utility.yul\":6203:6209   */\n      dup3\n        /* \"#utility.yul\":6192:6201   */\n      dup7\n        /* \"#utility.yul\":6188:6210   */\n      add\n        /* \"#utility.yul\":6157:6220   */\n      tag_71\n      jump\t// in\n    tag_157:\n        /* \"#utility.yul\":6147:6220   */\n      swap2\n      pop\n        /* \"#utility.yul\":5942:6230   */\n      pop\n        /* \"#utility.yul\":5403:6237   */\n      swap3\n      pop\n      swap3\n      swap1\n      pop\n      jump\t// out\n        /* \"#utility.yul\":6243:6412   */\n    tag_72:\n        /* \"#utility.yul\":6327:6338   */\n      0x00\n        /* \"#utility.yul\":6361:6367   */\n      dup3\n        /* \"#utility.yul\":6356:6359   */\n      dup3\n        /* \"#utility.yul\":6349:6368   */\n      mstore\n        /* \"#utility.yul\":6401:6405   */\n      0x20\n        /* \"#utility.yul\":6396:6399   */\n      dup3\n        /* \"#utility.yul\":6392:6406   */\n      add\n        /* \"#utility.yul\":6377:6406   */\n      swap1\n      pop\n        /* \"#utility.yul\":6243:6412   */\n      swap3\n      swap2\n      pop\n      pop\n      jump\t// out\n        /* \"#utility.yul\":6418:6795   */\n    tag_73:\n        /* \"#utility.yul\":6506:6509   */\n      0x00\n        /* \"#utility.yul\":6534:6573   */\n      tag_160\n        /* \"#utility.yul\":6567:6572   */\n      dup3\n        /* \"#utility.yul\":6534:6573   */\n      tag_57\n      jump\t// in\n    tag_160:\n        /* \"#utility.yul\":6589:6660   */\n      tag_161\n        /* \"#utility.yul\":6653:6659   */\n      dup2\n        /* \"#utility.yul\":6648:6651   */\n      dup6\n        /* \"#utility.yul\":6589:6660   */\n      tag_72\n      jump\t// in\n    tag_161:\n        /* \"#utility.yul\":6582:6660   */\n      swap4\n      pop\n        /* \"#utility.yul\":6669:6734   */\n      tag_162\n        /* \"#utility.yul\":6727:6733   */\n      dup2\n        /* \"#utility.yul\":6722:6725   */\n      dup6\n        /* \"#utility.yul\":6715:6719   */\n      0x20\n        /* \"#utility.yul\":6708:6713   */\n      dup7\n        /* \"#utility.yul\":6704:6720   */\n      add\n        /* \"#utility.yul\":6669:6734   */\n      tag_59\n      jump\t// in\n    tag_162:\n        /* \"#utility.yul\":6759:6788   */\n      tag_163\n        /* \"#utility.yul\":6781:6787   */\n      dup2\n        /* \"#utility.yul\":6759:6788   */\n      tag_60\n      jump\t// in\n    tag_163:\n        /* \"#utility.yul\":6754:6757   */\n      dup5\n        /* \"#utility.yul\":6750:6789   */\n      add\n        /* \"#utility.yul\":6743:6789   */\n      swap2\n      pop\n        /* \"#utility.yul\":6510:6795   */\n      pop\n        /* \"#utility.yul\":6418:6795   */\n      swap3\n      swap2\n      pop\n      pop\n      jump\t// out\n        /* \"#utility.yul\":6801:7315   */\n    tag_20:\n        /* \"#utility.yul\":6962:6966   */\n      0x00\n        /* \"#utility.yul\":7000:7002   */\n      0x40\n        /* \"#utility.yul\":6989:6998   */\n      dup3\n        /* \"#utility.yul\":6985:7003   */\n      add\n        /* \"#utility.yul\":6977:7003   */\n      swap1\n      pop\n        /* \"#utility.yul\":7049:7058   */\n      dup2\n        /* \"#utility.yul\":7043:7047   */\n      dup2\n        /* \"#utility.yul\":7039:7059   */\n      sub\n        /* \"#utility.yul\":7035:7036   */\n      0x00\n        /* \"#utility.yul\":7024:7033   */\n      dup4\n        /* \"#utility.yul\":7020:7037   */\n      add\n        /* \"#utility.yul\":7013:7060   */\n      mstore\n        /* \"#utility.yul\":7077:7155   */\n      tag_165\n        /* \"#utility.yul\":7150:7154   */\n      dup2\n        /* \"#utility.yul\":7141:7147   */\n      dup6\n        /* \"#utility.yul\":7077:7155   */\n      tag_73\n      jump\t// in\n    tag_165:\n        /* \"#utility.yul\":7069:7155   */\n      swap1\n      pop\n        /* \"#utility.yul\":7202:7211   */\n      dup2\n        /* \"#utility.yul\":7196:7200   */\n      dup2\n        /* \"#utility.yul\":7192:7212   */\n      sub\n        /* \"#utility.yul\":7187:7189   */\n      0x20\n        /* \"#utility.yul\":7176:7185   */\n      dup4\n        /* \"#utility.yul\":7172:7190   */\n      add\n        /* \"#utility.yul\":7165:7213   */\n      mstore\n        /* \"#utility.yul\":7230:7308   */\n      tag_166\n        /* \"#utility.yul\":7303:7307   */\n      dup2\n        /* \"#utility.yul\":7294:7300   */\n      dup5\n        /* \"#utility.yul\":7230:7308   */\n      tag_73\n      jump\t// in\n    tag_166:\n        /* \"#utility.yul\":7222:7308   */\n      swap1\n      pop\n        /* \"#utility.yul\":6801:7315   */\n      swap4\n      swap3\n      pop\n      pop\n      pop\n      jump\t// out\n        /* \"#utility.yul\":7321:7501   */\n    tag_74:\n        /* \"#utility.yul\":7369:7446   */\n      0x4e487b7100000000000000000000000000000000000000000000000000000000\n        /* \"#utility.yul\":7366:7367   */\n      0x00\n        /* \"#utility.yul\":7359:7447   */\n      mstore\n        /* \"#utility.yul\":7466:7470   */\n      0x22\n        /* \"#utility.yul\":7463:7464   */\n      0x04\n        /* \"#utility.yul\":7456:7471   */\n      mstore\n        /* \"#utility.yul\":7490:7494   */\n      0x24\n        /* \"#utility.yul\":7487:7488   */\n      0x00\n        /* \"#utility.yul\":7480:7495   */\n      revert\n        /* \"#utility.yul\":7507:7827   */\n    tag_25:\n        /* \"#utility.yul\":7551:7557   */\n      0x00\n        /* \"#utility.yul\":7588:7589   */\n      0x02\n        /* \"#utility.yul\":7582:7586   */\n      dup3\n        /* \"#utility.yul\":7578:7590   */\n      div\n        /* \"#utility.yul\":7568:7590   */\n      swap1\n      pop\n        /* \"#utility.yul\":7635:7636   */\n      0x01\n        /* \"#utility.yul\":7629:7633   */\n      dup3\n        /* \"#utility.yul\":7625:7637   */\n      and\n        /* \"#utility.yul\":7656:7674   */\n      dup1\n        /* \"#utility.yul\":7646:7727   */\n      tag_169\n      jumpi\n        /* \"#utility.yul\":7712:7716   */\n      0x7f\n        /* \"#utility.yul\":7704:7710   */\n      dup3\n        /* \"#utility.yul\":7700:7717   */\n      and\n        /* \"#utility.yul\":7690:7717   */\n      swap2\n      pop\n        /* \"#utility.yul\":7646:7727   */\n    tag_169:\n        /* \"#utility.yul\":7774:7776   */\n      0x20\n        /* \"#utility.yul\":7766:7772   */\n      dup3\n        /* \"#utility.yul\":7763:7777   */\n      lt\n        /* \"#utility.yul\":7743:7761   */\n      dup2\n        /* \"#utility.yul\":7740:7778   */\n      sub\n        /* \"#utility.yul\":7737:7821   */\n      tag_170\n      jumpi\n        /* \"#utility.yul\":7793:7811   */\n      tag_171\n      tag_74\n      jump\t// in\n    tag_171:\n        /* \"#utility.yul\":7737:7821   */\n    tag_170:\n        /* \"#utility.yul\":7558:7827   */\n      pop\n        /* \"#utility.yul\":7507:7827   */\n      swap2\n      swap1\n      pop\n      jump\t// out\n        /* \"#utility.yul\":7833:7974   */\n    tag_75:\n        /* \"#utility.yul\":7882:7886   */\n      0x00\n        /* \"#utility.yul\":7905:7908   */\n      dup2\n        /* \"#utility.yul\":7897:7908   */\n      swap1\n      pop\n        /* \"#utility.yul\":7928:7931   */\n      dup2\n        /* \"#utility.yul\":7925:7926   */\n      0x00\n        /* \"#utility.yul\":7918:7932   */\n      mstore\n        /* \"#utility.yul\":7962:7966   */\n      0x20\n        /* \"#utility.yul\":7959:7960   */\n      0x00\n        /* \"#utility.yul\":7949:7967   */\n      keccak256\n        /* \"#utility.yul\":7941:7967   */\n      swap1\n      pop\n        /* \"#utility.yul\":7833:7974   */\n      swap2\n      swap1\n      pop\n      jump\t// out\n        /* \"#utility.yul\":7980:8073   */\n    tag_76:\n        /* \"#utility.yul\":8017:8023   */\n      0x00\n        /* \"#utility.yul\":8064:8066   */\n      0x20\n        /* \"#utility.yul\":8059:8061   */\n      0x1f\n        /* \"#utility.yul\":8052:8057   */\n      dup4\n        /* \"#utility.yul\":8048:8062   */\n      add\n        /* \"#utility.yul\":8044:8067   */\n      div\n        /* \"#utility.yul\":8034:8067   */\n      swap1\n      pop\n        /* \"#utility.yul\":7980:8073   */\n      swap2\n      swap1\n      pop\n      jump\t// out\n        /* \"#utility.yul\":8079:8186   */\n    tag_77:\n        /* \"#utility.yul\":8123:8131   */\n      0x00\n        /* \"#utility.yul\":8173:8178   */\n      dup3\n        /* \"#utility.yul\":8167:8171   */\n      dup3\n        /* \"#utility.yul\":8163:8179   */\n      shl\n        /* \"#utility.yul\":8142:8179   */\n      swap1\n      pop\n        /* \"#utility.yul\":8079:8186   */\n      swap3\n      swap2\n      pop\n      pop\n      jump\t// out\n        /* \"#utility.yul\":8192:8585   */\n    tag_78:\n        /* \"#utility.yul\":8261:8267   */\n      0x00\n        /* \"#utility.yul\":8311:8312   */\n      0x08\n        /* \"#utility.yul\":8299:8309   */\n      dup4\n        /* \"#utility.yul\":8295:8313   */\n      mul\n        /* \"#utility.yul\":8334:8431   */\n      tag_176\n        /* \"#utility.yul\":8364:8430   */\n      0xffffffffffffffffffffffffffffffffffffffffffffffffffffffffffffffff\n        /* \"#utility.yul\":8353:8362   */\n      dup3\n        /* \"#utility.yul\":8334:8431   */\n      tag_77\n      jump\t// in\n    tag_176:\n        /* \"#utility.yul\":8452:8491   */\n      tag_177\n        /* \"#utility.yul\":8482:8490   */\n      dup7\n        /* \"#utility.yul\":8471:8480   */\n      dup4\n        /* \"#utility.yul\":8452:8491   */\n      tag_77\n      jump\t// in\n    tag_177:\n        /* \"#utility.yul\":8440:8491   */\n      swap6\n      pop\n        /* \"#utility.yul\":8524:8528   */\n      dup1\n        /* \"#utility.yul\":8520:8529   */\n      not\n        /* \"#utility.yul\":8513:8518   */\n      dup5\n        /* \"#utility.yul\":8509:8530   */\n      and\n        /* \"#utility.yul\":8500:8530   */\n      swap4\n      pop\n        /* \"#utility.yul\":8573:8577   */\n      dup1\n        /* \"#utility.yul\":8563:8571   */\n      dup7\n        /* \"#utility.yul\":8559:8578   */\n      and\n        /* \"#utility.yul\":8552:8557   */\n      dup5\n        /* \"#utility.yul\":8549:8579   */\n      or\n        /* \"#utility.yul\":8539:8579   */\n      swap3\n      pop\n        /* \"#utility.yul\":8268:8585   */\n      pop\n      pop\n        /* \"#utility.yul\":8192:8585   */\n      swap4\n      swap3\n      pop\n      pop\n      pop\n      jump\t// out\n        /* \"#utility.yul\":8591:8668   */\n    tag_79:\n        /* \"#utility.yul\":8628:8635   */\n      0x00\n        /* \"#utility.yul\":8657:8662   */\n      dup2\n        /* \"#utility.yul\":8646:8662   */\n      swap1\n      pop\n        /* \"#utility.yul\":8591:8668   */\n      swap2\n      swap1\n      pop\n      jump\t// out\n        /* \"#utility.yul\":8674:8734   */\n    tag_80:\n        /* \"#utility.yul\":8702:8705   */\n      0x00\n        /* \"#utility.yul\":8723:8728   */\n      dup2\n        /* \"#utility.yul\":8716:8728   */\n      swap1\n      pop\n        /* \"#utility.yul\":8674:8734   */\n      swap2\n      swap1\n      pop\n      jump\t// out\n        /* \"#utility.yul\":8740:8882   */\n    tag_81:\n        /* \"#utility.yul\":8790:8799   */\n      0x00\n        /* \"#utility.yul\":8823:8876   */\n      tag_181\n        /* \"#utility.yul\":8841:8875   */\n      tag_182\n        /* \"#utility.yul\":8850:8874   */\n      tag_183\n        /* \"#utility.yul\":8868:8873   */\n      dup5\n        /* \"#utility.yul\":8850:8874   */\n      tag_79\n      jump\t// in\n    tag_183:\n        /* \"#utility.yul\":8841:8875   */\n      tag_80\n      jump\t// in\n    tag_182:\n        /* \"#utility.yul\":8823:8876   */\n      tag_79\n      jump\t// in\n    tag_181:\n        /* \"#utility.yul\":8810:8876   */\n      swap1\n      pop\n        /* \"#utility.yul\":8740:8882   */\n      swap2\n      swap1\n      pop\n      jump\t// out\n        /* \"#utility.yul\":8888:8963   */\n    tag_82:\n        /* \"#utility.yul\":8931:8934   */\n      0x00\n        /* \"#utility.yul\":8952:8957   */\n      dup2\n        /* \"#utility.yul\":8945:8957   */\n      swap1\n      pop\n        /* \"#utility.yul\":8888:8963   */\n      swap2\n      swap1\n      pop\n      jump\t// out\n        /* \"#utility.yul\":8969:9238   */\n    tag_83:\n        /* \"#utility.yul\":9079:9118   */\n      tag_186\n        /* \"#utility.yul\":9110:9117   */\n      dup4\n        /* \"#utility.yul\":9079:9118   */\n      tag_81\n      jump\t// in\n    tag_186:\n        /* \"#utility.yul\":9140:9231   */\n      tag_187\n        /* \"#utility.yul\":9189:9230   */\n      tag_188\n        /* \"#utility.yul\":9213:9229   */\n      dup3\n        /* \"#utility.yul\":9189:9230   */\n      tag_82\n      jump\t// in\n    tag_188:\n        /* \"#utility.yul\":9181:9187   */\n      dup5\n        /* \"#utility.yul\":9174:9178   */\n      dup5\n        /* \"#utility.yul\":9168:9179   */\n      sload\n        /* \"#utility.yul\":9140:9231   */\n      tag_78\n      jump\t// in\n    tag_187:\n        /* \"#utility.yul\":9134:9138   */\n      dup3\n        /* \"#utility.yul\":9127:9232   */\n      sstore\n        /* \"#utility.yul\":9045:9238   */\n      pop\n        /* \"#utility.yul\":8969:9238   */\n      pop\n      pop\n      pop\n      jump\t// out\n        /* \"#utility.yul\":9244:9317   */\n    tag_84:\n        /* \"#utility.yul\":9289:9292   */\n      0x00\n        /* \"#utility.yul\":9244:9317   */\n      swap1\n      jump\t// out\n        /* \"#utility.yul\":9323:9512   */\n    tag_85:\n        /* \"#utility.yul\":9400:9432   */\n      tag_191\n      tag_84\n      jump\t// in\n    tag_191:\n        /* \"#utility.yul\":9441:9506   */\n      tag_192\n        /* \"#utility.yul\":9499:9505   */\n      dup2\n        /* \"#utility.yul\":9491:9497   */\n      dup5\n        /* \"#utility.yul\":9485:9489   */\n      dup5\n        /* \"#utility.yul\":9441:9506   */\n      tag_83\n      jump\t// in\n    tag_192:\n        /* \"#utility.yul\":9376:9512   */\n      pop\n        /* \"#utility.yul\":9323:9512   */\n      pop\n      pop\n      jump\t// out\n        /* \"#utility.yul\":9518:9704   */\n    tag_86:\n        /* \"#utility.yul\":9578:9698   */\n    tag_194:\n        /* \"#utility.yul\":9595:9598   */\n      dup2\n        /* \"#utility.yul\":9588:9593   */\n      dup2\n        /* \"#utility.yul\":9585:9599   */\n      lt\n        /* \"#utility.yul\":9578:9698   */\n      iszero\n      tag_196\n      jumpi\n        /* \"#utility.yul\":9649:9688   */\n      tag_197\n        /* \"#utility.yul\":9686:9687   */\n      0x00\n        /* \"#utility.yul\":9679:9684   */\n      dup3\n        /* \"#utility.yul\":9649:9688   */\n      tag_85\n      jump\t// in\n    tag_197:\n        /* \"#utility.yul\":9622:9623   */\n      0x01\n        /* \"#utility.yul\":9615:9620   */\n      dup2\n        /* \"#utility.yul\":9611:9624   */\n      add\n        /* \"#utility.yul\":9602:9624   */\n      swap1\n      pop\n        /* \"#utility.yul\":9578:9698   */\n      jump(tag_194)\n    tag_196:\n        /* \"#utility.yul\":9518:9704   */\n      pop\n      pop\n      jump\t// out\n        /* \"#utility.yul\":9710:10253   */\n    tag_87:\n        /* \"#utility.yul\":9811:9813   */\n      0x1f\n        /* \"#utility.yul\":9806:9809   */\n      dup3\n        /* \"#utility.yul\":9803:9814   */\n      gt\n        /* \"#utility.yul\":9800:10246   */\n      iszero\n      tag_199\n      jumpi\n        /* \"#utility.yul\":9845:9883   */\n      tag_200\n        /* \"#utility.yul\":9877:9882   */\n      dup2\n        /* \"#utility.yul\":9845:9883   */\n      tag_75\n      jump\t// in\n    tag_200:\n        /* \"#utility.yul\":9929:9958   */\n      tag_201\n        /* \"#utility.yul\":9947:9957   */\n      dup5\n        /* \"#utility.yul\":9929:9958   */\n      tag_76\n      jump\t// in\n    tag_201:\n        /* \"#utility.yul\":9919:9927   */\n      dup2\n        /* \"#utility.yul\":9915:9959   */\n      add\n        /* \"#utility.yul\":10112:10114   */\n      0x20\n        /* \"#utility.yul\":10100:10110   */\n      dup6\n        /* \"#utility.yul\":10097:10115   */\n      lt\n        /* \"#utility.yul\":10094:10143   */\n      iszero\n      tag_202\n      jumpi\n        /* \"#utility.yul\":10133:10141   */\n      dup2\n        /* \"#utility.yul\":10118:10141   */\n      swap1\n      pop\n        /* \"#utility.yul\":10094:10143   */\n    tag_202:\n        /* \"#utility.yul\":10156:10236   */\n      tag_203\n        /* \"#utility.yul\":10212:10234   */\n      tag_204\n        /* \"#utility.yul\":10230:10233   */\n      dup6\n        /* \"#utility.yul\":10212:10234   */\n      tag_76\n      jump\t// in\n    tag_204:\n        /* \"#utility.yul\":10202:10210   */\n      dup4\n        /* \"#utility.yul\":10198:10235   */\n      add\n        /* \"#utility.yul\":10185:10196   */\n      dup3\n        /* \"#utility.yul\":10156:10236   */\n      tag_86\n      jump\t// in\n    tag_203:\n        /* \"#utility.yul\":9815:10246   */\n      pop\n      pop\n        /* \"#utility.yul\":9800:10246   */\n    tag_199:\n        /* \"#utility.yul\":9710:10253   */\n      pop\n      pop\n      pop\n      jump\t// out\n        /* \"#utility.yul\":10259:10376   */\n    tag_88:\n        /* \"#utility.yul\":10313:10321   */\n      0x00\n        /* \"#utility.yul\":10363:10368   */\n      dup3\n        /* \"#utility.yul\":10357:10361   */\n      dup3\n        /* \"#utility.yul\":10353:10369   */\n      shr\n        /* \"#utility.yul\":10332:10369   */\n      swap1\n      pop\n        /* \"#utility.yul\":10259:10376   */\n      swap3\n      swap2\n      pop\n      pop\n      jump\t// out\n        /* \"#utility.yul\":10382:10551   */\n    tag_89:\n        /* \"#utility.yul\":10426:10432   */\n      0x00\n        /* \"#utility.yul\":10459:10510   */\n      tag_207\n        /* \"#utility.yul\":10507:10508   */\n      0x00\n        /* \"#utility.yul\":10503:10509   */\n      not\n        /* \"#utility.yul\":10495:10500   */\n      dup5\n        /* \"#utility.yul\":10492:10493   */\n      0x08\n        /* \"#utility.yul\":10488:10501   */\n      mul\n        /* \"#utility.yul\":10459:10510   */\n      tag_88\n      jump\t// in\n    tag_207:\n        /* \"#utility.yul\":10455:10511   */\n      not\n        /* \"#utility.yul\":10540:10544   */\n      dup1\n        /* \"#utility.yul\":10534:10538   */\n      dup4\n        /* \"#utility.yul\":10530:10545   */\n      and\n        /* \"#utility.yul\":10520:10545   */\n      swap2\n      pop\n        /* \"#utility.yul\":10433:10551   */\n      pop\n        /* \"#utility.yul\":10382:10551   */\n      swap3\n      swap2\n      pop\n      pop\n      jump\t// out\n        /* \"#utility.yul\":10556:10851   */\n    tag_90:\n        /* \"#utility.yul\":10632:10636   */\n      0x00\n        /* \"#utility.yul\":10778:10807   */\n      tag_209\n        /* \"#utility.yul\":10803:10806   */\n      dup4\n        /* \"#utility.yul\":10797:10801   */\n      dup4\n        /* \"#utility.yul\":10778:10807   */\n      tag_89\n      jump\t// in\n    tag_209:\n        /* \"#utility.yul\":10770:10807   */\n      swap2\n      pop\n        /* \"#utility.yul\":10840:10843   */\n      dup3\n        /* \"#utility.yul\":10837:10838   */\n      0x02\n        /* \"#utility.yul\":10833:10844   */\n      mul\n        /* \"#utility.yul\":10827:10831   */\n      dup3\n        /* \"#utility.yul\":10824:10845   */\n      or\n        /* \"#utility.yul\":10816:10845   */\n      swap1\n      pop\n        /* \"#utility.yul\":10556:10851   */\n      swap3\n      swap2\n      pop\n      pop\n      jump\t// out\n        /* \"#utility.yul\":10856:12251   */\n    tag_37:\n        /* \"#utility.yul\":10973:11010   */\n      tag_211\n        /* \"#utility.yul\":11006:11009   */\n      dup3\n        /* \"#utility.yul\":10973:11010   */\n      tag_57\n      jump\t// in\n    tag_211:\n        /* \"#utility.yul\":11075:11093   */\n      0xffffffffffffffff\n        /* \"#utility.yul\":11067:11073   */\n      dup2\n        /* \"#utility.yul\":11064:11094   */\n      gt\n        /* \"#utility.yul\":11061:11117   */\n      iszero\n      tag_212\n      jumpi\n        /* \"#utility.yul\":11097:11115   */\n      tag_213\n      tag_65\n      jump\t// in\n    tag_213:\n        /* \"#utility.yul\":11061:11117   */\n    tag_212:\n        /* \"#utility.yul\":11141:11179   */\n      tag_214\n        /* \"#utility.yul\":11173:11177   */\n      dup3\n        /* \"#utility.yul\":11167:11178   */\n      sload\n        /* \"#utility.yul\":11141:11179   */\n      tag_25\n      jump\t// in\n    tag_214:\n        /* \"#utility.yul\":11226:11293   */\n      tag_215\n        /* \"#utility.yul\":11286:11292   */\n      dup3\n        /* \"#utility.yul\":11278:11284   */\n      dup3\n        /* \"#utility.yul\":11272:11276   */\n      dup6\n        /* \"#utility.yul\":11226:11293   */\n      tag_87\n      jump\t// in\n    tag_215:\n        /* \"#utility.yul\":11320:11321   */\n      0x00\n        /* \"#utility.yul\":11344:11348   */\n      0x20\n        /* \"#utility.yul\":11331:11348   */\n      swap1\n      pop\n        /* \"#utility.yul\":11376:11378   */\n      0x1f\n        /* \"#utility.yul\":11368:11374   */\n      dup4\n        /* \"#utility.yul\":11365:11379   */\n      gt\n        /* \"#utility.yul\":11393:11394   */\n      0x01\n        /* \"#utility.yul\":11388:12006   */\n      dup2\n      eq\n      tag_217\n      jumpi\n        /* \"#utility.yul\":12050:12051   */\n      0x00\n        /* \"#utility.yul\":12067:12073   */\n      dup5\n        /* \"#utility.yul\":12064:12141   */\n      iszero\n      tag_218\n      jumpi\n        /* \"#utility.yul\":12116:12125   */\n      dup3\n        /* \"#utility.yul\":12111:12114   */\n      dup8\n        /* \"#utility.yul\":12107:12126   */\n      add\n        /* \"#utility.yul\":12101:12127   */\n      mload\n        /* \"#utility.yul\":12092:12127   */\n      swap1\n      pop\n        /* \"#utility.yul\":12064:12141   */\n    tag_218:\n        /* \"#utility.yul\":12167:12234   */\n      tag_219\n        /* \"#utility.yul\":12227:12233   */\n      dup6\n        /* \"#utility.yul\":12220:12225   */\n      dup3\n        /* \"#utility.yul\":12167:12234   */\n      tag_90\n      jump\t// in\n    tag_219:\n        /* \"#utility.yul\":12161:12165   */\n      dup7\n        /* \"#utility.yul\":12154:12235   */\n      sstore\n        /* \"#utility.yul\":12023:12245   */\n      pop\n        /* \"#utility.yul\":11358:12245   */\n      jump(tag_216)\n        /* \"#utility.yul\":11388:12006   */\n    tag_217:\n        /* \"#utility.yul\":11440:11444   */\n      0x1f\n        /* \"#utility.yul\":11436:11445   */\n      not\n        /* \"#utility.yul\":11428:11434   */\n      dup5\n        /* \"#utility.yul\":11424:11446   */\n      and\n        /* \"#utility.yul\":11474:11511   */\n      tag_220\n        /* \"#utility.yul\":11506:11510   */\n      dup7\n        /* \"#utility.yul\":11474:11511   */\n      tag_75\n      jump\t// in\n    tag_220:\n        /* \"#utility.yul\":11533:11534   */\n      0x00\n        /* \"#utility.yul\":11547:11755   */\n    tag_221:\n        /* \"#utility.yul\":11561:11568   */\n      dup3\n        /* \"#utility.yul\":11558:11559   */\n      dup2\n        /* \"#utility.yul\":11555:11569   */\n      lt\n        /* \"#utility.yul\":11547:11755   */\n      iszero\n      tag_223\n      jumpi\n        /* \"#utility.yul\":11640:11649   */\n      dup5\n        /* \"#utility.yul\":11635:11638   */\n      dup10\n        /* \"#utility.yul\":11631:11650   */\n      add\n        /* \"#utility.yul\":11625:11651   */\n      mload\n        /* \"#utility.yul\":11617:11623   */\n      dup3\n        /* \"#utility.yul\":11610:11652   */\n      sstore\n        /* \"#utility.yul\":11691:11692   */\n      0x01\n        /* \"#utility.yul\":11683:11689   */\n      dup3\n        /* \"#utility.yul\":11679:11693   */\n      add\n        /* \"#utility.yul\":11669:11693   */\n      swap2\n      pop\n        /* \"#utility.yul\":11738:11740   */\n      0x20\n        /* \"#utility.yul\":11727:11736   */\n      dup6\n        /* \"#utility.yul\":11723:11741   */\n      add\n        /* \"#utility.yul\":11710:11741   */\n      swap5\n      pop\n        /* \"#utility.yul\":11584:11588   */\n      0x20\n        /* \"#utility.yul\":11581:11582   */\n      dup2\n        /* \"#utility.yul\":11577:11589   */\n      add\n        /* \"#utility.yul\":11572:11589   */\n      swap1\n      pop\n        /* \"#utility.yul\":11547:11755   */\n      jump(tag_221)\n    tag_223:\n        /* \"#utility.yul\":11783:11789   */\n      dup7\n        /* \"#utility.yul\":11774:11781   */\n      dup4\n        /* \"#utility.yul\":11771:11790   */\n      lt\n        /* \"#utility.yul\":11768:11947   */\n      iszero\n      tag_224\n      jumpi\n        /* \"#utility.yul\":11841:11850   */\n      dup5\n        /* \"#utility.yul\":11836:11839   */\n      dup10\n        /* \"#utility.yul\":11832:11851   */\n      add\n        /* \"#utility.yul\":11826:11852   */\n      mload\n        /* \"#utility.yul\":11884:11932   */\n      tag_225\n        /* \"#utility.yul\":11926:11930   */\n      0x1f\n        /* \"#utility.yul\":11918:11924   */\n      dup10\n        /* \"#utility.yul\":11914:11931   */\n      and\n        /* \"#utility.yul\":11903:11912   */\n      dup3\n        /* \"#utility.yul\":11884:11932   */\n      tag_89\n      jump\t// in\n    tag_225:\n        /* \"#utility.yul\":11876:11882   */\n      dup4\n        /* \"#utility.yul\":11869:11933   */\n      sstore\n        /* \"#utility.yul\":11791:11947   */\n      pop\n        /* \"#utility.yul\":11768:11947   */\n    tag_224:\n        /* \"#utility.yul\":11993:11994   */\n      0x01\n        /* \"#utility.yul\":11989:11990   */\n      0x02\n        /* \"#utility.yul\":11981:11987   */\n      dup9\n        /* \"#utility.yul\":11977:11991   */\n      mul\n        /* \"#utility.yul\":11973:11995   */\n      add\n        /* \"#utility.yul\":11967:11971   */\n      dup9\n        /* \"#utility.yul\":11960:11996   */\n      sstore\n        /* \"#utility.yul\":11395:12006   */\n      pop\n      pop\n      pop\n        /* \"#utility.yul\":11358:12245   */\n    tag_216:\n      pop\n        /* \"#utility.yul\":10948:12251   */\n      pop\n      pop\n      pop\n        /* \"#utility.yul\":10856:12251   */\n      pop\n      pop\n      jump\t// out\n\n    auxdata: 0xa264697066735822122045ea5c766bada3e5fbaef63b86a8cf4e078985263daec2e5201c86e2f61e10d864736f6c634300081a0033\n}\n",
				"bytecode": {
					"linkReferences": {},
					"object": "6080604052348015600f57600080fd5b50610b448061001f6000396000f3fe608060405234801561001057600080fd5b50600436106100415760003560e01c80630f53a47014610046578063ba1feb8a14610076578063bbe1562714610092575b600080fd5b610060600480360381019061005b91906104d5565b6100c3565b60405161006d91906105d6565b60405180910390f35b610090600480360381019061008b919061072d565b61023f565b005b6100ac60048036038101906100a791906104d5565b610315565b6040516100ba9291906107ef565b60405180910390f35b6100cb610449565b6000808373ffffffffffffffffffffffffffffffffffffffff1673ffffffffffffffffffffffffffffffffffffffff16815260200190815260200160002060405180604001604052908160008201805461012490610855565b80601f016020809104026020016040519081016040528092919081815260200182805461015090610855565b801561019d5780601f106101725761010080835404028352916020019161019d565b820191906000526020600020905b81548152906001019060200180831161018057829003601f168201915b505050505081526020016001820180546101b690610855565b80601f01602080910402602001604051908101604052809291908181526020018280546101e290610855565b801561022f5780601f106102045761010080835404028352916020019161022f565b820191906000526020600020905b81548152906001019060200180831161021257829003601f168201915b5050505050815250509050919050565b6040518060400160405280838152602001828152506000803373ffffffffffffffffffffffffffffffffffffffff1673ffffffffffffffffffffffffffffffffffffffff16815260200190815260200160002060008201518160000190816102a79190610a3c565b5060208201518160010190816102bd9190610a3c565b509050503373ffffffffffffffffffffffffffffffffffffffff167f6b4494367229a908b0585b361e2871a21f8eb4cd852c02f55c9e06989f4bb2aa83836040516103099291906107ef565b60405180910390a25050565b600060205280600052604060002060009150905080600001805461033890610855565b80601f016020809104026020016040519081016040528092919081815260200182805461036490610855565b80156103b15780601f10610386576101008083540402835291602001916103b1565b820191906000526020600020905b81548152906001019060200180831161039457829003601f168201915b5050505050908060010180546103c690610855565b80601f01602080910402602001604051908101604052809291908181526020018280546103f290610855565b801561043f5780601f106104145761010080835404028352916020019161043f565b820191906000526020600020905b81548152906001019060200180831161042257829003601f168201915b5050505050905082565b604051806040016040528060608152602001606081525090565b6000604051905090565b600080fd5b600080fd5b600073ffffffffffffffffffffffffffffffffffffffff82169050919050565b60006104a282610477565b9050919050565b6104b281610497565b81146104bd57600080fd5b50565b6000813590506104cf816104a9565b92915050565b6000602082840312156104eb576104ea61046d565b5b60006104f9848285016104c0565b91505092915050565b600081519050919050565b600082825260208201905092915050565b60005b8381101561053c578082015181840152602081019050610521565b60008484015250505050565b6000601f19601f8301169050919050565b600061056482610502565b61056e818561050d565b935061057e81856020860161051e565b61058781610548565b840191505092915050565b600060408301600083015184820360008601526105af8282610559565b915050602083015184820360208601526105c98282610559565b9150508091505092915050565b600060208201905081810360008301526105f08184610592565b905092915050565b600080fd5b600080fd5b7f4e487b7100000000000000000000000000000000000000000000000000000000600052604160045260246000fd5b61063a82610548565b810181811067ffffffffffffffff8211171561065957610658610602565b5b80604052505050565b600061066c610463565b90506106788282610631565b919050565b600067ffffffffffffffff82111561069857610697610602565b5b6106a182610548565b9050602081019050919050565b82818337600083830152505050565b60006106d06106cb8461067d565b610662565b9050828152602081018484840111156106ec576106eb6105fd565b5b6106f78482856106ae565b509392505050565b600082601f830112610714576107136105f8565b5b81356107248482602086016106bd565b91505092915050565b600080604083850312156107445761074361046d565b5b600083013567ffffffffffffffff81111561076257610761610472565b5b61076e858286016106ff565b925050602083013567ffffffffffffffff81111561078f5761078e610472565b5b61079b858286016106ff565b9150509250929050565b600082825260208201905092915050565b60006107c182610502565b6107cb81856107a5565b93506107db81856020860161051e565b6107e481610548565b840191505092915050565b6000604082019050818103600083015261080981856107b6565b9050818103602083015261081d81846107b6565b90509392505050565b7f4e487b7100000000000000000000000000000000000000000000000000000000600052602260045260246000fd5b6000600282049050600182168061086d57607f821691505b6020821081036108805761087f610826565b5b50919050565b60008190508160005260206000209050919050565b60006020601f8301049050919050565b600082821b905092915050565b6000600883026108e87fffffffffffffffffffffffffffffffffffffffffffffffffffffffffffffffff826108ab565b6108f286836108ab565b95508019841693508086168417925050509392505050565b6000819050919050565b6000819050919050565b600061093961093461092f8461090a565b610914565b61090a565b9050919050565b6000819050919050565b6109538361091e565b61096761095f82610940565b8484546108b8565b825550505050565b600090565b61097c61096f565b61098781848461094a565b505050565b5b818110156109ab576109a0600082610974565b60018101905061098d565b5050565b601f8211156109f0576109c181610886565b6109ca8461089b565b810160208510156109d9578190505b6109ed6109e58561089b565b83018261098c565b50505b505050565b600082821c905092915050565b6000610a13600019846008026109f5565b1980831691505092915050565b6000610a2c8383610a02565b9150826002028217905092915050565b610a4582610502565b67ffffffffffffffff811115610a5e57610a5d610602565b5b610a688254610855565b610a738282856109af565b600060209050601f831160018114610aa65760008415610a94578287015190505b610a9e8582610a20565b865550610b06565b601f198416610ab486610886565b60005b82811015610adc57848901518255600182019150602085019450602081019050610ab7565b86831015610af95784890151610af5601f891682610a02565b8355505b6001600288020188555050505b50505050505056fea264697066735822122045ea5c766bada3e5fbaef63b86a8cf4e078985263daec2e5201c86e2f61e10d864736f6c634300081a0033",
					"opcodes": "PUSH1 0x80 PUSH1 0x40 MSTORE CALLVALUE DUP1 ISZERO PUSH1 0xF JUMPI PUSH1 0x0 DUP1 REVERT JUMPDEST POP PUSH2 0xB44 DUP1 PUSH2 0x1F PUSH1 0x0 CODECOPY PUSH1 0x0 RETURN INVALID PUSH1 0x80 PUSH1 0x40 MSTORE CALLVALUE DUP1 ISZERO PUSH2 0x10 JUMPI PUSH1 0x0 DUP1 REVERT JUMPDEST POP PUSH1 0x4 CALLDATASIZE LT PUSH2 0x41 JUMPI PUSH1 0x0 CALLDATALOAD PUSH1 0xE0 SHR DUP1 PUSH4 0xF53A470 EQ PUSH2 0x46 JUMPI DUP1 PUSH4 0xBA1FEB8A EQ PUSH2 0x76 JUMPI DUP1 PUSH4 0xBBE15627 EQ PUSH2 0x92 JUMPI JUMPDEST PUSH1 0x0 DUP1 REVERT JUMPDEST PUSH2 0x60 PUSH1 0x4 DUP1 CALLDATASIZE SUB DUP2 ADD SWAP1 PUSH2 0x5B SWAP2 SWAP1 PUSH2 0x4D5 JUMP JUMPDEST PUSH2 0xC3 JUMP JUMPDEST PUSH1 0x40 MLOAD PUSH2 0x6D SWAP2 SWAP1 PUSH2 0x5D6 JUMP JUMPDEST PUSH1 0x40 MLOAD DUP1 SWAP2 SUB SWAP1 RETURN JUMPDEST PUSH2 0x90 PUSH1 0x4 DUP1 CALLDATASIZE SUB DUP2 ADD SWAP1 PUSH2 0x8B SWAP2 SWAP1 PUSH2 0x72D JUMP JUMPDEST PUSH2 0x23F JUMP JUMPDEST STOP JUMPDEST PUSH2 0xAC PUSH1 0x4 DUP1 CALLDATASIZE SUB DUP2 ADD SWAP1 PUSH2 0xA7 SWAP2 SWAP1 PUSH2 0x4D5 JUMP JUMPDEST PUSH2 0x315 JUMP JUMPDEST PUSH1 0x40 MLOAD PUSH2 0xBA SWAP3 SWAP2 SWAP1 PUSH2 0x7EF JUMP JUMPDEST PUSH1 0x40 MLOAD DUP1 SWAP2 SUB SWAP1 RETURN JUMPDEST PUSH2 0xCB PUSH2 0x449 JUMP JUMPDEST PUSH1 0x0 DUP1 DUP4 PUSH20 0xFFFFFFFFFFFFFFFFFFFFFFFFFFFFFFFFFFFFFFFF AND PUSH20 0xFFFFFFFFFFFFFFFFFFFFFFFFFFFFFFFFFFFFFFFF AND DUP2 MSTORE PUSH1 0x20 ADD SWAP1 DUP2 MSTORE PUSH1 0x20 ADD PUSH1 0x0 KECCAK256 PUSH1 0x40 MLOAD DUP1 PUSH1 0x40 ADD PUSH1 0x40 MSTORE SWAP1 DUP2 PUSH1 0x0 DUP3 ADD DUP1 SLOAD PUSH2 0x124 SWAP1 PUSH2 0x855 JUMP JUMPDEST DUP1 PUSH1 0x1F ADD PUSH1 0x20 DUP1 SWAP2 DIV MUL PUSH1 0x20 ADD PUSH1 0x40 MLOAD SWAP1 DUP2 ADD PUSH1 0x40 MSTORE DUP1 SWAP3 SWAP2 SWAP1 DUP2 DUP2 MSTORE PUSH1 0x20 ADD DUP3 DUP1 SLOAD PUSH2 0x150 SWAP1 PUSH2 0x855 JUMP JUMPDEST DUP1 ISZERO PUSH2 0x19D JUMPI DUP1 PUSH1 0x1F LT PUSH2 0x172 JUMPI PUSH2 0x100 DUP1 DUP4 SLOAD DIV MUL DUP4 MSTORE SWAP2 PUSH1 0x20 ADD SWAP2 PUSH2 0x19D JUMP JUMPDEST DUP3 ADD SWAP2 SWAP1 PUSH1 0x0 MSTORE PUSH1 0x20 PUSH1 0x0 KECCAK256 SWAP1 JUMPDEST DUP2 SLOAD DUP2 MSTORE SWAP1 PUSH1 0x1 ADD SWAP1 PUSH1 0x20 ADD DUP1 DUP4 GT PUSH2 0x180 JUMPI DUP3 SWAP1 SUB PUSH1 0x1F AND DUP3 ADD SWAP2 JUMPDEST POP POP POP POP POP DUP2 MSTORE PUSH1 0x20 ADD PUSH1 0x1 DUP3 ADD DUP1 SLOAD PUSH2 0x1B6 SWAP1 PUSH2 0x855 JUMP JUMPDEST DUP1 PUSH1 0x1F ADD PUSH1 0x20 DUP1 SWAP2 DIV MUL PUSH1 0x20 ADD PUSH1 0x40 MLOAD SWAP1 DUP2 ADD PUSH1 0x40 MSTORE DUP1 SWAP3 SWAP2 SWAP1 DUP2 DUP2 MSTORE PUSH1 0x20 ADD DUP3 DUP1 SLOAD PUSH2 0x1E2 SWAP1 PUSH2 0x855 JUMP JUMPDEST DUP1 ISZERO PUSH2 0x22F JUMPI DUP1 PUSH1 0x1F LT PUSH2 0x204 JUMPI PUSH2 0x100 DUP1 DUP4 SLOAD DIV MUL DUP4 MSTORE SWAP2 PUSH1 0x20 ADD SWAP2 PUSH2 0x22F JUMP JUMPDEST DUP3 ADD SWAP2 SWAP1 PUSH1 0x0 MSTORE PUSH1 0x20 PUSH1 0x0 KECCAK256 SWAP1 JUMPDEST DUP2 SLOAD DUP2 MSTORE SWAP1 PUSH1 0x1 ADD SWAP1 PUSH1 0x20 ADD DUP1 DUP4 GT PUSH2 0x212 JUMPI DUP3 SWAP1 SUB PUSH1 0x1F AND DUP3 ADD SWAP2 JUMPDEST POP POP POP POP POP DUP2 MSTORE POP POP SWAP1 POP SWAP2 SWAP1 POP JUMP JUMPDEST PUSH1 0x40 MLOAD DUP1 PUSH1 0x40 ADD PUSH1 0x40 MSTORE DUP1 DUP4 DUP2 MSTORE PUSH1 0x20 ADD DUP3 DUP2 MSTORE POP PUSH1 0x0 DUP1 CALLER PUSH20 0xFFFFFFFFFFFFFFFFFFFFFFFFFFFFFFFFFFFFFFFF AND PUSH20 0xFFFFFFFFFFFFFFFFFFFFFFFFFFFFFFFFFFFFFFFF AND DUP2 MSTORE PUSH1 0x20 ADD SWAP1 DUP2 MSTORE PUSH1 0x20 ADD PUSH1 0x0 KECCAK256 PUSH1 0x0 DUP3 ADD MLOAD DUP2 PUSH1 0x0 ADD SWAP1 DUP2 PUSH2 0x2A7 SWAP2 SWAP1 PUSH2 0xA3C JUMP JUMPDEST POP PUSH1 0x20 DUP3 ADD MLOAD DUP2 PUSH1 0x1 ADD SWAP1 DUP2 PUSH2 0x2BD SWAP2 SWAP1 PUSH2 0xA3C JUMP JUMPDEST POP SWAP1 POP POP CALLER PUSH20 0xFFFFFFFFFFFFFFFFFFFFFFFFFFFFFFFFFFFFFFFF AND PUSH32 0x6B4494367229A908B0585B361E2871A21F8EB4CD852C02F55C9E06989F4BB2AA DUP4 DUP4 PUSH1 0x40 MLOAD PUSH2 0x309 SWAP3 SWAP2 SWAP1 PUSH2 0x7EF JUMP JUMPDEST PUSH1 0x40 MLOAD DUP1 SWAP2 SUB SWAP1 LOG2 POP POP JUMP JUMPDEST PUSH1 0x0 PUSH1 0x20 MSTORE DUP1 PUSH1 0x0 MSTORE PUSH1 0x40 PUSH1 0x0 KECCAK256 PUSH1 0x0 SWAP2 POP SWAP1 POP DUP1 PUSH1 0x0 ADD DUP1 SLOAD PUSH2 0x338 SWAP1 PUSH2 0x855 JUMP JUMPDEST DUP1 PUSH1 0x1F ADD PUSH1 0x20 DUP1 SWAP2 DIV MUL PUSH1 0x20 ADD PUSH1 0x40 MLOAD SWAP1 DUP2 ADD PUSH1 0x40 MSTORE DUP1 SWAP3 SWAP2 SWAP1 DUP2 DUP2 MSTORE PUSH1 0x20 ADD DUP3 DUP1 SLOAD PUSH2 0x364 SWAP1 PUSH2 0x855 JUMP JUMPDEST DUP1 ISZERO PUSH2 0x3B1 JUMPI DUP1 PUSH1 0x1F LT PUSH2 0x386 JUMPI PUSH2 0x100 DUP1 DUP4 SLOAD DIV MUL DUP4 MSTORE SWAP2 PUSH1 0x20 ADD SWAP2 PUSH2 0x3B1 JUMP JUMPDEST DUP3 ADD SWAP2 SWAP1 PUSH1 0x0 MSTORE PUSH1 0x20 PUSH1 0x0 KECCAK256 SWAP1 JUMPDEST DUP2 SLOAD DUP2 MSTORE SWAP1 PUSH1 0x1 ADD SWAP1 PUSH1 0x20 ADD DUP1 DUP4 GT PUSH2 0x394 JUMPI DUP3 SWAP1 SUB PUSH1 0x1F AND DUP3 ADD SWAP2 JUMPDEST POP POP POP POP POP SWAP1 DUP1 PUSH1 0x1 ADD DUP1 SLOAD PUSH2 0x3C6 SWAP1 PUSH2 0x855 JUMP JUMPDEST DUP1 PUSH1 0x1F ADD PUSH1 0x20 DUP1 SWAP2 DIV MUL PUSH1 0x20 ADD PUSH1 0x40 MLOAD SWAP1 DUP2 ADD PUSH1 0x40 MSTORE DUP1 SWAP3 SWAP2 SWAP1 DUP2 DUP2 MSTORE PUSH1 0x20 ADD DUP3 DUP1 SLOAD PUSH2 0x3F2 SWAP1 PUSH2 0x855 JUMP JUMPDEST DUP1 ISZERO PUSH2 0x43F JUMPI DUP1 PUSH1 0x1F LT PUSH2 0x414 JUMPI PUSH2 0x100 DUP1 DUP4 SLOAD DIV MUL DUP4 MSTORE SWAP2 PUSH1 0x20 ADD SWAP2 PUSH2 0x43F JUMP JUMPDEST DUP3 ADD SWAP2 SWAP1 PUSH1 0x0 MSTORE PUSH1 0x20 PUSH1 0x0 KECCAK256 SWAP1 JUMPDEST DUP2 SLOAD DUP2 MSTORE SWAP1 PUSH1 0x1 ADD SWAP1 PUSH1 0x20 ADD DUP1 DUP4 GT PUSH2 0x422 JUMPI DUP3 SWAP1 SUB PUSH1 0x1F AND DUP3 ADD SWAP2 JUMPDEST POP POP POP POP POP SWAP1 POP DUP3 JUMP JUMPDEST PUSH1 0x40 MLOAD DUP1 PUSH1 0x40 ADD PUSH1 0x40 MSTORE DUP1 PUSH1 0x60 DUP2 MSTORE PUSH1 0x20 ADD PUSH1 0x60 DUP2 MSTORE POP SWAP1 JUMP JUMPDEST PUSH1 0x0 PUSH1 0x40 MLOAD SWAP1 POP SWAP1 JUMP JUMPDEST PUSH1 0x0 DUP1 REVERT JUMPDEST PUSH1 0x0 DUP1 REVERT JUMPDEST PUSH1 0x0 PUSH20 0xFFFFFFFFFFFFFFFFFFFFFFFFFFFFFFFFFFFFFFFF DUP3 AND SWAP1 POP SWAP2 SWAP1 POP JUMP JUMPDEST PUSH1 0x0 PUSH2 0x4A2 DUP3 PUSH2 0x477 JUMP JUMPDEST SWAP1 POP SWAP2 SWAP1 POP JUMP JUMPDEST PUSH2 0x4B2 DUP2 PUSH2 0x497 JUMP JUMPDEST DUP2 EQ PUSH2 0x4BD JUMPI PUSH1 0x0 DUP1 REVERT JUMPDEST POP JUMP JUMPDEST PUSH1 0x0 DUP2 CALLDATALOAD SWAP1 POP PUSH2 0x4CF DUP2 PUSH2 0x4A9 JUMP JUMPDEST SWAP3 SWAP2 POP POP JUMP JUMPDEST PUSH1 0x0 PUSH1 0x20 DUP3 DUP5 SUB SLT ISZERO PUSH2 0x4EB JUMPI PUSH2 0x4EA PUSH2 0x46D JUMP JUMPDEST JUMPDEST PUSH1 0x0 PUSH2 0x4F9 DUP5 DUP3 DUP6 ADD PUSH2 0x4C0 JUMP JUMPDEST SWAP2 POP POP SWAP3 SWAP2 POP POP JUMP JUMPDEST PUSH1 0x0 DUP2 MLOAD SWAP1 POP SWAP2 SWAP1 POP JUMP JUMPDEST PUSH1 0x0 DUP3 DUP3 MSTORE PUSH1 0x20 DUP3 ADD SWAP1 POP SWAP3 SWAP2 POP POP JUMP JUMPDEST PUSH1 0x0 JUMPDEST DUP4 DUP2 LT ISZERO PUSH2 0x53C JUMPI DUP1 DUP3 ADD MLOAD DUP2 DUP5 ADD MSTORE PUSH1 0x20 DUP2 ADD SWAP1 POP PUSH2 0x521 JUMP JUMPDEST PUSH1 0x0 DUP5 DUP5 ADD MSTORE POP POP POP POP JUMP JUMPDEST PUSH1 0x0 PUSH1 0x1F NOT PUSH1 0x1F DUP4 ADD AND SWAP1 POP SWAP2 SWAP1 POP JUMP JUMPDEST PUSH1 0x0 PUSH2 0x564 DUP3 PUSH2 0x502 JUMP JUMPDEST PUSH2 0x56E DUP2 DUP6 PUSH2 0x50D JUMP JUMPDEST SWAP4 POP PUSH2 0x57E DUP2 DUP6 PUSH1 0x20 DUP7 ADD PUSH2 0x51E JUMP JUMPDEST PUSH2 0x587 DUP2 PUSH2 0x548 JUMP JUMPDEST DUP5 ADD SWAP2 POP POP SWAP3 SWAP2 POP POP JUMP JUMPDEST PUSH1 0x0 PUSH1 0x40 DUP4 ADD PUSH1 0x0 DUP4 ADD MLOAD DUP5 DUP3 SUB PUSH1 0x0 DUP7 ADD MSTORE PUSH2 0x5AF DUP3 DUP3 PUSH2 0x559 JUMP JUMPDEST SWAP2 POP POP PUSH1 0x20 DUP4 ADD MLOAD DUP5 DUP3 SUB PUSH1 0x20 DUP7 ADD MSTORE PUSH2 0x5C9 DUP3 DUP3 PUSH2 0x559 JUMP JUMPDEST SWAP2 POP POP DUP1 SWAP2 POP POP SWAP3 SWAP2 POP POP JUMP JUMPDEST PUSH1 0x0 PUSH1 0x20 DUP3 ADD SWAP1 POP DUP2 DUP2 SUB PUSH1 0x0 DUP4 ADD MSTORE PUSH2 0x5F0 DUP2 DUP5 PUSH2 0x592 JUMP JUMPDEST SWAP1 POP SWAP3 SWAP2 POP POP JUMP JUMPDEST PUSH1 0x0 DUP1 REVERT JUMPDEST PUSH1 0x0 DUP1 REVERT JUMPDEST PUSH32 0x4E487B7100000000000000000000000000000000000000000000000000000000 PUSH1 0x0 MSTORE PUSH1 0x41 PUSH1 0x4 MSTORE PUSH1 0x24 PUSH1 0x0 REVERT JUMPDEST PUSH2 0x63A DUP3 PUSH2 0x548 JUMP JUMPDEST DUP2 ADD DUP2 DUP2 LT PUSH8 0xFFFFFFFFFFFFFFFF DUP3 GT OR ISZERO PUSH2 0x659 JUMPI PUSH2 0x658 PUSH2 0x602 JUMP JUMPDEST JUMPDEST DUP1 PUSH1 0x40 MSTORE POP POP POP JUMP JUMPDEST PUSH1 0x0 PUSH2 0x66C PUSH2 0x463 JUMP JUMPDEST SWAP1 POP PUSH2 0x678 DUP3 DUP3 PUSH2 0x631 JUMP JUMPDEST SWAP2 SWAP1 POP JUMP JUMPDEST PUSH1 0x0 PUSH8 0xFFFFFFFFFFFFFFFF DUP3 GT ISZERO PUSH2 0x698 JUMPI PUSH2 0x697 PUSH2 0x602 JUMP JUMPDEST JUMPDEST PUSH2 0x6A1 DUP3 PUSH2 0x548 JUMP JUMPDEST SWAP1 POP PUSH1 0x20 DUP2 ADD SWAP1 POP SWAP2 SWAP1 POP JUMP JUMPDEST DUP3 DUP2 DUP4 CALLDATACOPY PUSH1 0x0 DUP4 DUP4 ADD MSTORE POP POP POP JUMP JUMPDEST PUSH1 0x0 PUSH2 0x6D0 PUSH2 0x6CB DUP5 PUSH2 0x67D JUMP JUMPDEST PUSH2 0x662 JUMP JUMPDEST SWAP1 POP DUP3 DUP2 MSTORE PUSH1 0x20 DUP2 ADD DUP5 DUP5 DUP5 ADD GT ISZERO PUSH2 0x6EC JUMPI PUSH2 0x6EB PUSH2 0x5FD JUMP JUMPDEST JUMPDEST PUSH2 0x6F7 DUP5 DUP3 DUP6 PUSH2 0x6AE JUMP JUMPDEST POP SWAP4 SWAP3 POP POP POP JUMP JUMPDEST PUSH1 0x0 DUP3 PUSH1 0x1F DUP4 ADD SLT PUSH2 0x714 JUMPI PUSH2 0x713 PUSH2 0x5F8 JUMP JUMPDEST JUMPDEST DUP2 CALLDATALOAD PUSH2 0x724 DUP5 DUP3 PUSH1 0x20 DUP7 ADD PUSH2 0x6BD JUMP JUMPDEST SWAP2 POP POP SWAP3 SWAP2 POP POP JUMP JUMPDEST PUSH1 0x0 DUP1 PUSH1 0x40 DUP4 DUP6 SUB SLT ISZERO PUSH2 0x744 JUMPI PUSH2 0x743 PUSH2 0x46D JUMP JUMPDEST JUMPDEST PUSH1 0x0 DUP4 ADD CALLDATALOAD PUSH8 0xFFFFFFFFFFFFFFFF DUP2 GT ISZERO PUSH2 0x762 JUMPI PUSH2 0x761 PUSH2 0x472 JUMP JUMPDEST JUMPDEST PUSH2 0x76E DUP6 DUP3 DUP7 ADD PUSH2 0x6FF JUMP JUMPDEST SWAP3 POP POP PUSH1 0x20 DUP4 ADD CALLDATALOAD PUSH8 0xFFFFFFFFFFFFFFFF DUP2 GT ISZERO PUSH2 0x78F JUMPI PUSH2 0x78E PUSH2 0x472 JUMP JUMPDEST JUMPDEST PUSH2 0x79B DUP6 DUP3 DUP7 ADD PUSH2 0x6FF JUMP JUMPDEST SWAP2 POP POP SWAP3 POP SWAP3 SWAP1 POP JUMP JUMPDEST PUSH1 0x0 DUP3 DUP3 MSTORE PUSH1 0x20 DUP3 ADD SWAP1 POP SWAP3 SWAP2 POP POP JUMP JUMPDEST PUSH1 0x0 PUSH2 0x7C1 DUP3 PUSH2 0x502 JUMP JUMPDEST PUSH2 0x7CB DUP2 DUP6 PUSH2 0x7A5 JUMP JUMPDEST SWAP4 POP PUSH2 0x7DB DUP2 DUP6 PUSH1 0x20 DUP7 ADD PUSH2 0x51E JUMP JUMPDEST PUSH2 0x7E4 DUP2 PUSH2 0x548 JUMP JUMPDEST DUP5 ADD SWAP2 POP POP SWAP3 SWAP2 POP POP JUMP JUMPDEST PUSH1 0x0 PUSH1 0x40 DUP3 ADD SWAP1 POP DUP2 DUP2 SUB PUSH1 0x0 DUP4 ADD MSTORE PUSH2 0x809 DUP2 DUP6 PUSH2 0x7B6 JUMP JUMPDEST SWAP1 POP DUP2 DUP2 SUB PUSH1 0x20 DUP4 ADD MSTORE PUSH2 0x81D DUP2 DUP5 PUSH2 0x7B6 JUMP JUMPDEST SWAP1 POP SWAP4 SWAP3 POP POP POP JUMP JUMPDEST PUSH32 0x4E487B7100000000000000000000000000000000000000000000000000000000 PUSH1 0x0 MSTORE PUSH1 0x22 PUSH1 0x4 MSTORE PUSH1 0x24 PUSH1 0x0 REVERT JUMPDEST PUSH1 0x0 PUSH1 0x2 DUP3 DIV SWAP1 POP PUSH1 0x1 DUP3 AND DUP1 PUSH2 0x86D JUMPI PUSH1 0x7F DUP3 AND SWAP2 POP JUMPDEST PUSH1 0x20 DUP3 LT DUP2 SUB PUSH2 0x880 JUMPI PUSH2 0x87F PUSH2 0x826 JUMP JUMPDEST JUMPDEST POP SWAP2 SWAP1 POP JUMP JUMPDEST PUSH1 0x0 DUP2 SWAP1 POP DUP2 PUSH1 0x0 MSTORE PUSH1 0x20 PUSH1 0x0 KECCAK256 SWAP1 POP SWAP2 SWAP1 POP JUMP JUMPDEST PUSH1 0x0 PUSH1 0x20 PUSH1 0x1F DUP4 ADD DIV SWAP1 POP SWAP2 SWAP1 POP JUMP JUMPDEST PUSH1 0x0 DUP3 DUP3 SHL SWAP1 POP SWAP3 SWAP2 POP POP JUMP JUMPDEST PUSH1 0x0 PUSH1 0x8 DUP4 MUL PUSH2 0x8E8 PUSH32 0xFFFFFFFFFFFFFFFFFFFFFFFFFFFFFFFFFFFFFFFFFFFFFFFFFFFFFFFFFFFFFFFF DUP3 PUSH2 0x8AB JUMP JUMPDEST PUSH2 0x8F2 DUP7 DUP4 PUSH2 0x8AB JUMP JUMPDEST SWAP6 POP DUP1 NOT DUP5 AND SWAP4 POP DUP1 DUP7 AND DUP5 OR SWAP3 POP POP POP SWAP4 SWAP3 POP POP POP JUMP JUMPDEST PUSH1 0x0 DUP2 SWAP1 POP SWAP2 SWAP1 POP JUMP JUMPDEST PUSH1 0x0 DUP2 SWAP1 POP SWAP2 SWAP1 POP JUMP JUMPDEST PUSH1 0x0 PUSH2 0x939 PUSH2 0x934 PUSH2 0x92F DUP5 PUSH2 0x90A JUMP JUMPDEST PUSH2 0x914 JUMP JUMPDEST PUSH2 0x90A JUMP JUMPDEST SWAP1 POP SWAP2 SWAP1 POP JUMP JUMPDEST PUSH1 0x0 DUP2 SWAP1 POP SWAP2 SWAP1 POP JUMP JUMPDEST PUSH2 0x953 DUP4 PUSH2 0x91E JUMP JUMPDEST PUSH2 0x967 PUSH2 0x95F DUP3 PUSH2 0x940 JUMP JUMPDEST DUP5 DUP5 SLOAD PUSH2 0x8B8 JUMP JUMPDEST DUP3 SSTORE POP POP POP POP JUMP JUMPDEST PUSH1 0x0 SWAP1 JUMP JUMPDEST PUSH2 0x97C PUSH2 0x96F JUMP JUMPDEST PUSH2 0x987 DUP2 DUP5 DUP5 PUSH2 0x94A JUMP JUMPDEST POP POP POP JUMP JUMPDEST JUMPDEST DUP2 DUP2 LT ISZERO PUSH2 0x9AB JUMPI PUSH2 0x9A0 PUSH1 0x0 DUP3 PUSH2 0x974 JUMP JUMPDEST PUSH1 0x1 DUP2 ADD SWAP1 POP PUSH2 0x98D JUMP JUMPDEST POP POP JUMP JUMPDEST PUSH1 0x1F DUP3 GT ISZERO PUSH2 0x9F0 JUMPI PUSH2 0x9C1 DUP2 PUSH2 0x886 JUMP JUMPDEST PUSH2 0x9CA DUP5 PUSH2 0x89B JUMP JUMPDEST DUP2 ADD PUSH1 0x20 DUP6 LT ISZERO PUSH2 0x9D9 JUMPI DUP2 SWAP1 POP JUMPDEST PUSH2 0x9ED PUSH2 0x9E5 DUP6 PUSH2 0x89B JUMP JUMPDEST DUP4 ADD DUP3 PUSH2 0x98C JUMP JUMPDEST POP POP JUMPDEST POP POP POP JUMP JUMPDEST PUSH1 0x0 DUP3 DUP3 SHR SWAP1 POP SWAP3 SWAP2 POP POP JUMP JUMPDEST PUSH1 0x0 PUSH2 0xA13 PUSH1 0x0 NOT DUP5 PUSH1 0x8 MUL PUSH2 0x9F5 JUMP JUMPDEST NOT DUP1 DUP4 AND SWAP2 POP POP SWAP3 SWAP2 POP POP JUMP JUMPDEST PUSH1 0x0 PUSH2 0xA2C DUP4 DUP4 PUSH2 0xA02 JUMP JUMPDEST SWAP2 POP DUP3 PUSH1 0x2 MUL DUP3 OR SWAP1 POP SWAP3 SWAP2 POP POP JUMP JUMPDEST PUSH2 0xA45 DUP3 PUSH2 0x502 JUMP JUMPDEST PUSH8 0xFFFFFFFFFFFFFFFF DUP2 GT ISZERO PUSH2 0xA5E JUMPI PUSH2 0xA5D PUSH2 0x602 JUMP JUMPDEST JUMPDEST PUSH2 0xA68 DUP3 SLOAD PUSH2 0x855 JUMP JUMPDEST PUSH2 0xA73 DUP3 DUP3 DUP6 PUSH2 0x9AF JUMP JUMPDEST PUSH1 0x0 PUSH1 0x20 SWAP1 POP PUSH1 0x1F DUP4 GT PUSH1 0x1 DUP2 EQ PUSH2 0xAA6 JUMPI PUSH1 0x0 DUP5 ISZERO PUSH2 0xA94 JUMPI DUP3 DUP8 ADD MLOAD SWAP1 POP JUMPDEST PUSH2 0xA9E DUP6 DUP3 PUSH2 0xA20 JUMP JUMPDEST DUP7 SSTORE POP PUSH2 0xB06 JUMP JUMPDEST PUSH1 0x1F NOT DUP5 AND PUSH2 0xAB4 DUP7 PUSH2 0x886 JUMP JUMPDEST PUSH1 0x0 JUMPDEST DUP3 DUP2 LT ISZERO PUSH2 0xADC JUMPI DUP5 DUP10 ADD MLOAD DUP3 SSTORE PUSH1 0x1 DUP3 ADD SWAP2 POP PUSH1 0x20 DUP6 ADD SWAP5 POP PUSH1 0x20 DUP2 ADD SWAP1 POP PUSH2 0xAB7 JUMP JUMPDEST DUP7 DUP4 LT ISZERO PUSH2 0xAF9 JUMPI DUP5 DUP10 ADD MLOAD PUSH2 0xAF5 PUSH1 0x1F DUP10 AND DUP3 PUSH2 0xA02 JUMP JUMPDEST DUP4 SSTORE POP JUMPDEST PUSH1 0x1 PUSH1 0x2 DUP9 MUL ADD DUP9 SSTORE POP POP POP JUMPDEST POP POP POP POP POP POP JUMP INVALID LOG2 PUSH5 0x6970667358 0x22 SLT KECCAK256 GASLIMIT 0xEA TLOAD PUSH23 0x6BADA3E5FBAEF63B86A8CF4E078985263DAEC2E5201C86 0xE2 0xF6 0x1E LT 0xD8 PUSH5 0x736F6C6343 STOP ADDMOD BYTE STOP CALLER "
				},
				"gasEstimates": {
					"creation": {
						"codeDepositCost": "576800",
						"executionCost": "613",
						"totalCost": "577413"
					},
					"external": {
						"createProfile(string,string)": "infinite",
						"getProfile(address)": "infinite",
						"profiles(address)": "infinite"
					}
				},
				"methodIdentifiers": {
					"createProfile(string,string)": "ba1feb8a",
					"getProfile(address)": "0f53a470",
					"profiles(address)": "bbe15627"
				}
			},
			"storageLayout": {
				"storage": [
					{
						"astId": 11,
						"contract": "contracts/ProfileCreator.sol:ProfileCreator",
						"label": "profiles",
						"offset": 0,
						"slot": "0",
						"type": "t_mapping(t_address,t_struct(Profile)6_storage)"
					}
				],
				"types": {
					"t_address": {
						"encoding": "inplace",
						"label": "address",
						"numberOfBytes": "20"
					},
					"t_mapping(t_address,t_struct(Profile)6_storage)": {
						"encoding": "mapping",
						"key": "t_address",
						"label": "mapping(address => struct ProfileCreator.Profile)",
						"numberOfBytes": "32",
						"value": "t_struct(Profile)6_storage"
					},
					"t_string_storage": {
						"encoding": "bytes",
						"label": "string",
						"numberOfBytes": "32"
					},
					"t_struct(Profile)6_storage": {
						"encoding": "inplace",
						"label": "struct ProfileCreator.Profile",
						"members": [
							{
								"astId": 3,
								"contract": "contracts/ProfileCreator.sol:ProfileCreator",
								"label": "username",
								"offset": 0,
								"slot": "0",
								"type": "t_string_storage"
							},
							{
								"astId": 5,
								"contract": "contracts/ProfileCreator.sol:ProfileCreator",
								"label": "email",
								"offset": 0,
								"slot": "1",
								"type": "t_string_storage"
							}
						],
						"numberOfBytes": "64"
					}
				}
			},
			"userdoc": {
				"kind": "user",
				"methods": {},
				"version": 1
			}
		}
	}
}